{
  "address": "0xCf7Ed3AccA5a467e9e704C703E8D87F634fB0Fc9",
  "abi": [
    {
      "inputs": [
        {
          "internalType": "address",
          "name": "_priceFeed",
          "type": "address"
        }
      ],
      "stateMutability": "nonpayable",
      "type": "constructor"
    },
    {
      "inputs": [],
      "name": "MIN_USD",
      "outputs": [
        {
          "internalType": "uint256",
          "name": "",
          "type": "uint256"
        }
      ],
      "stateMutability": "view",
      "type": "function"
    },
    {
      "inputs": [],
      "name": "admin",
      "outputs": [
        {
          "internalType": "address",
          "name": "",
          "type": "address"
        }
      ],
      "stateMutability": "view",
      "type": "function"
    },
    {
      "inputs": [
        {
          "internalType": "uint256",
          "name": "eth",
          "type": "uint256"
        }
      ],
      "name": "ethToDollar",
      "outputs": [
        {
          "internalType": "uint256",
          "name": "",
          "type": "uint256"
        }
      ],
      "stateMutability": "view",
      "type": "function"
    },
    {
      "inputs": [],
      "name": "funderArraySize",
      "outputs": [
        {
          "internalType": "uint256",
          "name": "",
          "type": "uint256"
        }
      ],
      "stateMutability": "view",
      "type": "function"
    },
    {
      "inputs": [
        {
          "internalType": "address",
          "name": "",
          "type": "address"
        }
      ],
      "name": "funderToAmount",
      "outputs": [
        {
          "internalType": "uint256",
          "name": "",
          "type": "uint256"
        }
      ],
      "stateMutability": "view",
      "type": "function"
    },
    {
      "inputs": [
        {
          "internalType": "uint256",
          "name": "",
          "type": "uint256"
        }
      ],
      "name": "funders",
      "outputs": [
        {
          "internalType": "address",
          "name": "",
          "type": "address"
        }
      ],
      "stateMutability": "view",
      "type": "function"
    },
    {
      "inputs": [],
      "name": "getContractAmount",
      "outputs": [
        {
          "internalType": "uint256",
          "name": "",
          "type": "uint256"
        }
      ],
      "stateMutability": "view",
      "type": "function"
    },
    {
      "inputs": [],
      "name": "getFiatPrice",
      "outputs": [],
      "stateMutability": "payable",
      "type": "function"
    },
    {
      "inputs": [
        {
          "internalType": "uint256",
          "name": "index",
          "type": "uint256"
        }
      ],
      "name": "getFunderAddress",
      "outputs": [
        {
          "internalType": "address",
          "name": "",
          "type": "address"
        }
      ],
      "stateMutability": "view",
      "type": "function"
    },
    {
      "inputs": [
        {
          "internalType": "address",
          "name": "funder",
          "type": "address"
        }
      ],
      "name": "getFunderToAmount",
      "outputs": [
        {
          "internalType": "uint256",
          "name": "",
          "type": "uint256"
        }
      ],
      "stateMutability": "view",
      "type": "function"
    },
    {
      "inputs": [],
      "name": "priceFeed",
      "outputs": [
        {
          "internalType": "contract AggregatorV3Interface",
          "name": "",
          "type": "address"
        }
      ],
      "stateMutability": "view",
      "type": "function"
    },
    {
      "inputs": [],
      "name": "withdraw",
      "outputs": [],
      "stateMutability": "nonpayable",
      "type": "function"
    }
  ],
  "transactionHash": "0x3ea348d7a73fb0c930c235bf823a27a8033156ffbfc5c1263fc2afa1088840f5",
  "args": [
    "0x5FbDB2315678afecb367f032d93F642f64180aa3"
  ],
  "numDeployments": 1,
  "solcInputHash": "f33ca0429562aeb565ea9b79cfd09bf8",
  "bytecode": "0x60806040526802b5e3af16b18800006000553480156200001e57600080fd5b50604051620011a1380380620011a1833981810160405281019062000044919062000137565b33600160006101000a81548173ffffffffffffffffffffffffffffffffffffffff021916908373ffffffffffffffffffffffffffffffffffffffff16021790555080600460006101000a81548173ffffffffffffffffffffffffffffffffffffffff021916908373ffffffffffffffffffffffffffffffffffffffff1602179055505062000169565b600080fd5b600073ffffffffffffffffffffffffffffffffffffffff82169050919050565b6000620000ff82620000d2565b9050919050565b6200011181620000f2565b81146200011d57600080fd5b50565b600081519050620001318162000106565b92915050565b60006020828403121562000150576200014f620000cd565b5b6000620001608482850162000120565b91505092915050565b61102880620001796000396000f3fe6080604052600436106100a75760003560e01c8063501522cd11610064578063501522cd146101d0578063741bef1a146101fb5780639c5e5e0e14610226578063dc0d3dff14610263578063eddc14d8146102a0578063f851a440146102aa576100a7565b80631c2ffdfb146100ac578063213dbea2146100e95780632aca2ae3146101145780633b6c89991461013f5780633ccfd60b1461017c5780634407e1e814610193575b600080fd5b3480156100b857600080fd5b506100d360048036038101906100ce9190610938565b6102d5565b6040516100e09190610974565b60405180910390f35b3480156100f557600080fd5b506100fe6103c1565b60405161010b9190610974565b60405180910390f35b34801561012057600080fd5b506101296103c7565b6040516101369190610974565b60405180910390f35b34801561014b57600080fd5b5061016660048036038101906101619190610938565b6103cf565b60405161017391906109d0565b60405180910390f35b34801561018857600080fd5b50610191610417565b005b34801561019f57600080fd5b506101ba60048036038101906101b59190610a17565b61064f565b6040516101c79190610974565b60405180910390f35b3480156101dc57600080fd5b506101e5610667565b6040516101f29190610974565b60405180910390f35b34801561020757600080fd5b50610210610674565b60405161021d9190610aa3565b60405180910390f35b34801561023257600080fd5b5061024d60048036038101906102489190610a17565b61069a565b60405161025a9190610974565b60405180910390f35b34801561026f57600080fd5b5061028a60048036038101906102859190610938565b6106e3565b60405161029791906109d0565b60405180910390f35b6102a8610722565b005b3480156102b657600080fd5b506102bf610830565b6040516102cc91906109d0565b60405180910390f35b600080600460009054906101000a900473ffffffffffffffffffffffffffffffffffffffff1673ffffffffffffffffffffffffffffffffffffffff1663feaf968c6040518163ffffffff1660e01b815260040160a06040518083038186803b15801561034057600080fd5b505afa158015610354573d6000803e3d6000fd5b505050506040513d601f19601f820116820180604052508101906103789190610b4b565b50505091505060006402540be400826103919190610bf5565b90506000670de0b6b3a764000085836103aa9190610d0c565b6103b49190610d95565b9050809350505050919050565b60005481565b600047905090565b6000600282815481106103e5576103e4610dc6565b5b9060005260206000200160009054906101000a900473ffffffffffffffffffffffffffffffffffffffff169050919050565b600160009054906101000a900473ffffffffffffffffffffffffffffffffffffffff1673ffffffffffffffffffffffffffffffffffffffff163373ffffffffffffffffffffffffffffffffffffffff16146104a7576040517f08c379a000000000000000000000000000000000000000000000000000000000815260040161049e90610e52565b60405180910390fd5b6000600280549050905060005b8181101561055257600060036000600284815481106104d6576104d5610dc6565b5b9060005260206000200160009054906101000a900473ffffffffffffffffffffffffffffffffffffffff1673ffffffffffffffffffffffffffffffffffffffff1673ffffffffffffffffffffffffffffffffffffffff16815260200190815260200160002081905550808061054a90610e72565b9150506104b4565b50600067ffffffffffffffff81111561056e5761056d610ebb565b5b60405190808252806020026020018201604052801561059c5781602001602082028036833780820191505090505b50600290805190602001906105b2929190610856565b506000600160009054906101000a900473ffffffffffffffffffffffffffffffffffffffff1673ffffffffffffffffffffffffffffffffffffffff16476040516105fb90610f1b565b60006040518083038185875af1925050503d8060008114610638576040519150601f19603f3d011682016040523d82523d6000602084013e61063d565b606091505b505090508061064b57600080fd5b5050565b60036020528060005260406000206000915090505481565b6000600280549050905090565b600460009054906101000a900473ffffffffffffffffffffffffffffffffffffffff1681565b6000600360008373ffffffffffffffffffffffffffffffffffffffff1673ffffffffffffffffffffffffffffffffffffffff168152602001908152602001600020549050919050565b600281815481106106f357600080fd5b906000526020600020016000915054906101000a900473ffffffffffffffffffffffffffffffffffffffff1681565b600061072d346102d5565b9050600054811015610774576040517f08c379a000000000000000000000000000000000000000000000000000000000815260040161076b90610f7c565b60405180910390fd5b6002339080600181540180825580915050600190039060005260206000200160009091909190916101000a81548173ffffffffffffffffffffffffffffffffffffffff021916908373ffffffffffffffffffffffffffffffffffffffff16021790555034600360003373ffffffffffffffffffffffffffffffffffffffff1673ffffffffffffffffffffffffffffffffffffffff16815260200190815260200160002060008282546108269190610f9c565b9250508190555050565b600160009054906101000a900473ffffffffffffffffffffffffffffffffffffffff1681565b8280548282559060005260206000209081019282156108cf579160200282015b828111156108ce5782518260006101000a81548173ffffffffffffffffffffffffffffffffffffffff021916908373ffffffffffffffffffffffffffffffffffffffff16021790555091602001919060010190610876565b5b5090506108dc91906108e0565b5090565b5b808211156108f95760008160009055506001016108e1565b5090565b600080fd5b6000819050919050565b61091581610902565b811461092057600080fd5b50565b6000813590506109328161090c565b92915050565b60006020828403121561094e5761094d6108fd565b5b600061095c84828501610923565b91505092915050565b61096e81610902565b82525050565b60006020820190506109896000830184610965565b92915050565b600073ffffffffffffffffffffffffffffffffffffffff82169050919050565b60006109ba8261098f565b9050919050565b6109ca816109af565b82525050565b60006020820190506109e560008301846109c1565b92915050565b6109f4816109af565b81146109ff57600080fd5b50565b600081359050610a11816109eb565b92915050565b600060208284031215610a2d57610a2c6108fd565b5b6000610a3b84828501610a02565b91505092915050565b6000819050919050565b6000610a69610a64610a5f8461098f565b610a44565b61098f565b9050919050565b6000610a7b82610a4e565b9050919050565b6000610a8d82610a70565b9050919050565b610a9d81610a82565b82525050565b6000602082019050610ab86000830184610a94565b92915050565b600069ffffffffffffffffffff82169050919050565b610add81610abe565b8114610ae857600080fd5b50565b600081519050610afa81610ad4565b92915050565b6000819050919050565b610b1381610b00565b8114610b1e57600080fd5b50565b600081519050610b3081610b0a565b92915050565b600081519050610b458161090c565b92915050565b600080600080600060a08688031215610b6757610b666108fd565b5b6000610b7588828901610aeb565b9550506020610b8688828901610b21565b9450506040610b9788828901610b36565b9350506060610ba888828901610b36565b9250506080610bb988828901610aeb565b9150509295509295909350565b7f4e487b7100000000000000000000000000000000000000000000000000000000600052601160045260246000fd5b6000610c0082610b00565b9150610c0b83610b00565b9250827f7fffffffffffffffffffffffffffffffffffffffffffffffffffffffffffffff0482116000841360008413161615610c4a57610c49610bc6565b5b817f80000000000000000000000000000000000000000000000000000000000000000583126000841260008413161615610c8757610c86610bc6565b5b827f80000000000000000000000000000000000000000000000000000000000000000582126000841360008412161615610cc457610cc3610bc6565b5b827f7fffffffffffffffffffffffffffffffffffffffffffffffffffffffffffffff0582126000841260008412161615610d0157610d00610bc6565b5b828202905092915050565b6000610d1782610902565b9150610d2283610902565b9250817fffffffffffffffffffffffffffffffffffffffffffffffffffffffffffffffff0483118215151615610d5b57610d5a610bc6565b5b828202905092915050565b7f4e487b7100000000000000000000000000000000000000000000000000000000600052601260045260246000fd5b6000610da082610902565b9150610dab83610902565b925082610dbb57610dba610d66565b5b828204905092915050565b7f4e487b7100000000000000000000000000000000000000000000000000000000600052603260045260246000fd5b600082825260208201905092915050565b7f4f6e6c792041646d696e2063616e206163636573730000000000000000000000600082015250565b6000610e3c601583610df5565b9150610e4782610e06565b602082019050919050565b60006020820190508181036000830152610e6b81610e2f565b9050919050565b6000610e7d82610902565b91507fffffffffffffffffffffffffffffffffffffffffffffffffffffffffffffffff821415610eb057610eaf610bc6565b5b600182019050919050565b7f4e487b7100000000000000000000000000000000000000000000000000000000600052604160045260246000fd5b600081905092915050565b50565b6000610f05600083610eea565b9150610f1082610ef5565b600082019050919050565b6000610f2682610ef8565b9150819050919050565b7f4e6f7420656e6f75676820457468000000000000000000000000000000000000600082015250565b6000610f66600e83610df5565b9150610f7182610f30565b602082019050919050565b60006020820190508181036000830152610f9581610f59565b9050919050565b6000610fa782610902565b9150610fb283610902565b9250827fffffffffffffffffffffffffffffffffffffffffffffffffffffffffffffffff03821115610fe757610fe6610bc6565b5b82820190509291505056fea2646970667358221220f918e4f966e74d5fe34c03fe2e74b6829c82c1232aa53635f66dd4b24326530a64736f6c63430008090033",
  "devdoc": {
    "kind": "dev",
    "methods": {},
    "version": 1
  },
  "userdoc": {
    "kind": "user",
    "methods": {},
    "version": 1
  },
  "storageLayout": {
    "storage": [
      {
        "astId": 2927,
        "contract": "contracts/FundMe.sol:ChainlinkPriceFeed",
        "label": "MIN_USD",
        "offset": 0,
        "slot": "0",
        "type": "t_uint256"
      },
      {
        "astId": 2929,
        "contract": "contracts/FundMe.sol:ChainlinkPriceFeed",
        "label": "admin",
        "offset": 0,
        "slot": "1",
        "type": "t_address"
      },
      {
        "astId": 2932,
        "contract": "contracts/FundMe.sol:ChainlinkPriceFeed",
        "label": "funders",
        "offset": 0,
        "slot": "2",
        "type": "t_array(t_address)dyn_storage"
      },
      {
        "astId": 2936,
        "contract": "contracts/FundMe.sol:ChainlinkPriceFeed",
        "label": "funderToAmount",
        "offset": 0,
        "slot": "3",
        "type": "t_mapping(t_address,t_uint256)"
      },
      {
        "astId": 2939,
        "contract": "contracts/FundMe.sol:ChainlinkPriceFeed",
        "label": "priceFeed",
        "offset": 0,
        "slot": "4",
        "type": "t_contract(AggregatorV3Interface)45"
      }
    ],
    "types": {
      "t_address": {
        "encoding": "inplace",
        "label": "address",
        "numberOfBytes": "20"
      },
      "t_array(t_address)dyn_storage": {
        "base": "t_address",
        "encoding": "dynamic_array",
        "label": "address[]",
        "numberOfBytes": "32"
      },
      "t_contract(AggregatorV3Interface)45": {
        "encoding": "inplace",
        "label": "contract AggregatorV3Interface",
        "numberOfBytes": "20"
      },
      "t_mapping(t_address,t_uint256)": {
        "encoding": "mapping",
        "key": "t_address",
        "label": "mapping(address => uint256)",
        "numberOfBytes": "32",
        "value": "t_uint256"
      },
      "t_uint256": {
        "encoding": "inplace",
        "label": "uint256",
        "numberOfBytes": "32"
      }
    }
  }
}