{
  "address": "0x0165878A594ca255338adfa4d48449f69242Eb8F",
  "abi": [
    {
      "inputs": [
        {
          "internalType": "address",
          "name": "marketplaceAddress",
          "type": "address"
        }
      ],
      "stateMutability": "nonpayable",
      "type": "constructor"
    },
    {
      "anonymous": false,
      "inputs": [
        {
          "indexed": true,
          "internalType": "address",
          "name": "owner",
          "type": "address"
        },
        {
          "indexed": true,
          "internalType": "address",
          "name": "approved",
          "type": "address"
        },
        {
          "indexed": true,
          "internalType": "uint256",
          "name": "tokenId",
          "type": "uint256"
        }
      ],
      "name": "Approval",
      "type": "event"
    },
    {
      "anonymous": false,
      "inputs": [
        {
          "indexed": true,
          "internalType": "address",
          "name": "owner",
          "type": "address"
        },
        {
          "indexed": true,
          "internalType": "address",
          "name": "operator",
          "type": "address"
        },
        {
          "indexed": false,
          "internalType": "bool",
          "name": "approved",
          "type": "bool"
        }
      ],
      "name": "ApprovalForAll",
      "type": "event"
    },
    {
      "anonymous": false,
      "inputs": [
        {
          "components": [
            {
              "internalType": "uint256",
              "name": "_value",
              "type": "uint256"
            }
          ],
          "indexed": false,
          "internalType": "struct Counters.Counter",
          "name": "_tokenIds",
          "type": "tuple"
        },
        {
          "indexed": false,
          "internalType": "uint256",
          "name": "_tokenId",
          "type": "uint256"
        }
      ],
      "name": "Created",
      "type": "event"
    },
    {
      "anonymous": false,
      "inputs": [
        {
          "indexed": false,
          "internalType": "uint256",
          "name": "_tokenId",
          "type": "uint256"
        }
      ],
      "name": "CreatedToken",
      "type": "event"
    },
    {
      "anonymous": false,
      "inputs": [
        {
          "indexed": true,
          "internalType": "address",
          "name": "from",
          "type": "address"
        },
        {
          "indexed": true,
          "internalType": "address",
          "name": "to",
          "type": "address"
        },
        {
          "indexed": true,
          "internalType": "uint256",
          "name": "tokenId",
          "type": "uint256"
        }
      ],
      "name": "Transfer",
      "type": "event"
    },
    {
      "inputs": [],
      "name": "_tokenIds",
      "outputs": [
        {
          "internalType": "uint256",
          "name": "_value",
          "type": "uint256"
        }
      ],
      "stateMutability": "view",
      "type": "function"
    },
    {
      "inputs": [
        {
          "internalType": "address",
          "name": "to",
          "type": "address"
        },
        {
          "internalType": "uint256",
          "name": "tokenId",
          "type": "uint256"
        }
      ],
      "name": "approve",
      "outputs": [],
      "stateMutability": "nonpayable",
      "type": "function"
    },
    {
      "inputs": [
        {
          "internalType": "address",
          "name": "owner",
          "type": "address"
        }
      ],
      "name": "balanceOf",
      "outputs": [
        {
          "internalType": "uint256",
          "name": "",
          "type": "uint256"
        }
      ],
      "stateMutability": "view",
      "type": "function"
    },
    {
      "inputs": [
        {
          "internalType": "uint256",
          "name": "tokenId",
          "type": "uint256"
        }
      ],
      "name": "getApproved",
      "outputs": [
        {
          "internalType": "address",
          "name": "",
          "type": "address"
        }
      ],
      "stateMutability": "view",
      "type": "function"
    },
    {
      "inputs": [
        {
          "internalType": "address",
          "name": "owner",
          "type": "address"
        },
        {
          "internalType": "address",
          "name": "operator",
          "type": "address"
        }
      ],
      "name": "isApprovedForAll",
      "outputs": [
        {
          "internalType": "bool",
          "name": "",
          "type": "bool"
        }
      ],
      "stateMutability": "view",
      "type": "function"
    },
    {
      "inputs": [],
      "name": "name",
      "outputs": [
        {
          "internalType": "string",
          "name": "",
          "type": "string"
        }
      ],
      "stateMutability": "view",
      "type": "function"
    },
    {
      "inputs": [],
      "name": "newId",
      "outputs": [
        {
          "internalType": "uint256",
          "name": "",
          "type": "uint256"
        }
      ],
      "stateMutability": "view",
      "type": "function"
    },
    {
      "inputs": [
        {
          "internalType": "uint256",
          "name": "tokenId",
          "type": "uint256"
        }
      ],
      "name": "ownerOf",
      "outputs": [
        {
          "internalType": "address",
          "name": "",
          "type": "address"
        }
      ],
      "stateMutability": "view",
      "type": "function"
    },
    {
      "inputs": [
        {
          "internalType": "string",
          "name": "tokenURI",
          "type": "string"
        }
      ],
      "name": "productCreated",
      "outputs": [
        {
          "internalType": "uint256",
          "name": "",
          "type": "uint256"
        }
      ],
      "stateMutability": "nonpayable",
      "type": "function"
    },
    {
      "inputs": [
        {
          "internalType": "address",
          "name": "from",
          "type": "address"
        },
        {
          "internalType": "address",
          "name": "to",
          "type": "address"
        },
        {
          "internalType": "uint256",
          "name": "tokenId",
          "type": "uint256"
        }
      ],
      "name": "safeTransferFrom",
      "outputs": [],
      "stateMutability": "nonpayable",
      "type": "function"
    },
    {
      "inputs": [
        {
          "internalType": "address",
          "name": "from",
          "type": "address"
        },
        {
          "internalType": "address",
          "name": "to",
          "type": "address"
        },
        {
          "internalType": "uint256",
          "name": "tokenId",
          "type": "uint256"
        },
        {
          "internalType": "bytes",
          "name": "data",
          "type": "bytes"
        }
      ],
      "name": "safeTransferFrom",
      "outputs": [],
      "stateMutability": "nonpayable",
      "type": "function"
    },
    {
      "inputs": [
        {
          "internalType": "address",
          "name": "operator",
          "type": "address"
        },
        {
          "internalType": "bool",
          "name": "approved",
          "type": "bool"
        }
      ],
      "name": "setApprovalForAll",
      "outputs": [],
      "stateMutability": "nonpayable",
      "type": "function"
    },
    {
      "inputs": [
        {
          "internalType": "bytes4",
          "name": "interfaceId",
          "type": "bytes4"
        }
      ],
      "name": "supportsInterface",
      "outputs": [
        {
          "internalType": "bool",
          "name": "",
          "type": "bool"
        }
      ],
      "stateMutability": "view",
      "type": "function"
    },
    {
      "inputs": [],
      "name": "symbol",
      "outputs": [
        {
          "internalType": "string",
          "name": "",
          "type": "string"
        }
      ],
      "stateMutability": "view",
      "type": "function"
    },
    {
      "inputs": [
        {
          "internalType": "uint256",
          "name": "tokenId",
          "type": "uint256"
        }
      ],
      "name": "tokenURI",
      "outputs": [
        {
          "internalType": "string",
          "name": "",
          "type": "string"
        }
      ],
      "stateMutability": "view",
      "type": "function"
    },
    {
      "inputs": [
        {
          "internalType": "address",
          "name": "from",
          "type": "address"
        },
        {
          "internalType": "address",
          "name": "to",
          "type": "address"
        },
        {
          "internalType": "uint256",
          "name": "tokenId",
          "type": "uint256"
        }
      ],
      "name": "transferFrom",
      "outputs": [],
      "stateMutability": "nonpayable",
      "type": "function"
    }
  ],
  "transactionHash": "0xa593f62f962adaac80c538628b59eb501c61f3cf05d8949f015da6bb89692379",
  "args": [
    "0x5FC8d32690cc91D4c39d9d3abcBD16989F875707"
  ],
  "numDeployments": 1,
  "solcInputHash": "f33ca0429562aeb565ea9b79cfd09bf8",
  "bytecode": "0x60806040523480156200001157600080fd5b5060405162002d0e38038062002d0e833981810160405281019062000037919062000239565b6040518060400160405280600f81526020017f45636f6d6d657263654d61726b657400000000000000000000000000000000008152506040518060400160405280600381526020017f45434d00000000000000000000000000000000000000000000000000000000008152508160009080519060200190620000bb9291906200011f565b508060019080519060200190620000d49291906200011f565b50505080600960006101000a81548173ffffffffffffffffffffffffffffffffffffffff021916908373ffffffffffffffffffffffffffffffffffffffff16021790555050620002d0565b8280546200012d906200029a565b90600052602060002090601f0160209004810192826200015157600085556200019d565b82601f106200016c57805160ff19168380011785556200019d565b828001600101855582156200019d579182015b828111156200019c5782518255916020019190600101906200017f565b5b509050620001ac9190620001b0565b5090565b5b80821115620001cb576000816000905550600101620001b1565b5090565b600080fd5b600073ffffffffffffffffffffffffffffffffffffffff82169050919050565b60006200020182620001d4565b9050919050565b6200021381620001f4565b81146200021f57600080fd5b50565b600081519050620002338162000208565b92915050565b600060208284031215620002525762000251620001cf565b5b6000620002628482850162000222565b91505092915050565b7f4e487b7100000000000000000000000000000000000000000000000000000000600052602260045260246000fd5b60006002820490506001821680620002b357607f821691505b60208210811415620002ca57620002c96200026b565b5b50919050565b612a2e80620002e06000396000f3fe608060405234801561001057600080fd5b50600436106101005760003560e01c806370a0823111610097578063aa46a40011610066578063aa46a400146102bf578063b88d4fde146102dd578063c87b56dd146102f9578063e985e9c51461032957610100565b806370a08231146102255780638440e5851461025557806395d89b4114610285578063a22cb465146102a357610100565b806323b872dd116100d357806323b872dd1461019f57806342842e0e146101bb5780635c956fb9146101d75780636352211e146101f557610100565b806301ffc9a71461010557806306fdde0314610135578063081812fc14610153578063095ea7b314610183575b600080fd5b61011f600480360381019061011a919061197f565b610359565b60405161012c91906119c7565b60405180910390f35b61013d61043b565b60405161014a9190611a7b565b60405180910390f35b61016d60048036038101906101689190611ad3565b6104cd565b60405161017a9190611b41565b60405180910390f35b61019d60048036038101906101989190611b88565b610513565b005b6101b960048036038101906101b49190611bc8565b61062b565b005b6101d560048036038101906101d09190611bc8565b61068b565b005b6101df6106ab565b6040516101ec9190611c2a565b60405180910390f35b61020f600480360381019061020a9190611ad3565b6106b1565b60405161021c9190611b41565b60405180910390f35b61023f600480360381019061023a9190611c45565b610763565b60405161024c9190611c2a565b60405180910390f35b61026f600480360381019061026a9190611da7565b61081b565b60405161027c9190611c2a565b60405180910390f35b61028d6108f6565b60405161029a9190611a7b565b60405180910390f35b6102bd60048036038101906102b89190611e1c565b610988565b005b6102c761099e565b6040516102d49190611c2a565b60405180910390f35b6102f760048036038101906102f29190611efd565b6109aa565b005b610313600480360381019061030e9190611ad3565b610a0c565b6040516103209190611a7b565b60405180910390f35b610343600480360381019061033e9190611f80565b610b1f565b60405161035091906119c7565b60405180910390f35b60007f80ac58cd000000000000000000000000000000000000000000000000000000007bffffffffffffffffffffffffffffffffffffffffffffffffffffffff1916827bffffffffffffffffffffffffffffffffffffffffffffffffffffffff1916148061042457507f5b5e139f000000000000000000000000000000000000000000000000000000007bffffffffffffffffffffffffffffffffffffffffffffffffffffffff1916827bffffffffffffffffffffffffffffffffffffffffffffffffffffffff1916145b80610434575061043382610bb3565b5b9050919050565b60606000805461044a90611fef565b80601f016020809104026020016040519081016040528092919081815260200182805461047690611fef565b80156104c35780601f10610498576101008083540402835291602001916104c3565b820191906000526020600020905b8154815290600101906020018083116104a657829003601f168201915b5050505050905090565b60006104d882610c1d565b6004600083815260200190815260200160002060009054906101000a900473ffffffffffffffffffffffffffffffffffffffff169050919050565b600061051e826106b1565b90508073ffffffffffffffffffffffffffffffffffffffff168373ffffffffffffffffffffffffffffffffffffffff16141561058f576040517f08c379a000000000000000000000000000000000000000000000000000000000815260040161058690612093565b60405180910390fd5b8073ffffffffffffffffffffffffffffffffffffffff166105ae610c68565b73ffffffffffffffffffffffffffffffffffffffff1614806105dd57506105dc816105d7610c68565b610b1f565b5b61061c576040517f08c379a000000000000000000000000000000000000000000000000000000000815260040161061390612125565b60405180910390fd5b6106268383610c70565b505050565b61063c610636610c68565b82610d29565b61067b576040517f08c379a0000000000000000000000000000000000000000000000000000000008152600401610672906121b7565b60405180910390fd5b610686838383610dbe565b505050565b6106a6838383604051806020016040528060008152506109aa565b505050565b60085481565b6000806002600084815260200190815260200160002060009054906101000a900473ffffffffffffffffffffffffffffffffffffffff169050600073ffffffffffffffffffffffffffffffffffffffff168173ffffffffffffffffffffffffffffffffffffffff16141561075a576040517f08c379a000000000000000000000000000000000000000000000000000000000815260040161075190612223565b60405180910390fd5b80915050919050565b60008073ffffffffffffffffffffffffffffffffffffffff168273ffffffffffffffffffffffffffffffffffffffff1614156107d4576040517f08c379a00000000000000000000000000000000000000000000000000000000081526004016107cb906122b5565b60405180910390fd5b600360008373ffffffffffffffffffffffffffffffffffffffff1673ffffffffffffffffffffffffffffffffffffffff168152602001908152602001600020549050919050565b6000806108286007611025565b90508060088190555061083b3382611033565b610845818461120d565b610872600960009054906101000a900473ffffffffffffffffffffffffffffffffffffffff166001610988565b61087c6007611281565b7fb2366bdf20ef740d92ac44873588a5da99a4d13cde583a4fe5ad1c9718476673816040516108ab9190611c2a565b60405180910390a17f746049fa4b4439a53b1cc3e715ce3cf1a50c9b846f040c54dce0604846b705876007826040516108e592919061233e565b60405180910390a180915050919050565b60606001805461090590611fef565b80601f016020809104026020016040519081016040528092919081815260200182805461093190611fef565b801561097e5780601f106109535761010080835404028352916020019161097e565b820191906000526020600020905b81548152906001019060200180831161096157829003601f168201915b5050505050905090565b61099a610993610c68565b8383611297565b5050565b60078060000154905081565b6109bb6109b5610c68565b83610d29565b6109fa576040517f08c379a00000000000000000000000000000000000000000000000000000000081526004016109f1906121b7565b60405180910390fd5b610a0684848484611404565b50505050565b6060610a1782610c1d565b6000600660008481526020019081526020016000208054610a3790611fef565b80601f0160208091040260200160405190810160405280929190818152602001828054610a6390611fef565b8015610ab05780601f10610a8557610100808354040283529160200191610ab0565b820191906000526020600020905b815481529060010190602001808311610a9357829003601f168201915b505050505090506000610ac1611460565b9050600081511415610ad7578192505050610b1a565b600082511115610b0c578082604051602001610af49291906123a3565b60405160208183030381529060405292505050610b1a565b610b1584611477565b925050505b919050565b6000600560008473ffffffffffffffffffffffffffffffffffffffff1673ffffffffffffffffffffffffffffffffffffffff16815260200190815260200160002060008373ffffffffffffffffffffffffffffffffffffffff1673ffffffffffffffffffffffffffffffffffffffff16815260200190815260200160002060009054906101000a900460ff16905092915050565b60007f01ffc9a7000000000000000000000000000000000000000000000000000000007bffffffffffffffffffffffffffffffffffffffffffffffffffffffff1916827bffffffffffffffffffffffffffffffffffffffffffffffffffffffff1916149050919050565b610c26816114df565b610c65576040517f08c379a0000000000000000000000000000000000000000000000000000000008152600401610c5c90612223565b60405180910390fd5b50565b600033905090565b816004600083815260200190815260200160002060006101000a81548173ffffffffffffffffffffffffffffffffffffffff021916908373ffffffffffffffffffffffffffffffffffffffff160217905550808273ffffffffffffffffffffffffffffffffffffffff16610ce3836106b1565b73ffffffffffffffffffffffffffffffffffffffff167f8c5be1e5ebec7d5bd14f71427d1e84f3dd0314c0f7b2291e5b200ac8c7c3b92560405160405180910390a45050565b600080610d35836106b1565b90508073ffffffffffffffffffffffffffffffffffffffff168473ffffffffffffffffffffffffffffffffffffffff161480610d775750610d768185610b1f565b5b80610db557508373ffffffffffffffffffffffffffffffffffffffff16610d9d846104cd565b73ffffffffffffffffffffffffffffffffffffffff16145b91505092915050565b8273ffffffffffffffffffffffffffffffffffffffff16610dde826106b1565b73ffffffffffffffffffffffffffffffffffffffff1614610e34576040517f08c379a0000000000000000000000000000000000000000000000000000000008152600401610e2b90612439565b60405180910390fd5b600073ffffffffffffffffffffffffffffffffffffffff168273ffffffffffffffffffffffffffffffffffffffff161415610ea4576040517f08c379a0000000000000000000000000000000000000000000000000000000008152600401610e9b906124cb565b60405180910390fd5b610eaf83838361154b565b610eba600082610c70565b6001600360008573ffffffffffffffffffffffffffffffffffffffff1673ffffffffffffffffffffffffffffffffffffffff1681526020019081526020016000206000828254610f0a919061251a565b925050819055506001600360008473ffffffffffffffffffffffffffffffffffffffff1673ffffffffffffffffffffffffffffffffffffffff1681526020019081526020016000206000828254610f61919061254e565b92505081905550816002600083815260200190815260200160002060006101000a81548173ffffffffffffffffffffffffffffffffffffffff021916908373ffffffffffffffffffffffffffffffffffffffff160217905550808273ffffffffffffffffffffffffffffffffffffffff168473ffffffffffffffffffffffffffffffffffffffff167fddf252ad1be2c89b69c2b068fc378daa952ba7f163c4a11628f55a4df523b3ef60405160405180910390a4611020838383611550565b505050565b600081600001549050919050565b600073ffffffffffffffffffffffffffffffffffffffff168273ffffffffffffffffffffffffffffffffffffffff1614156110a3576040517f08c379a000000000000000000000000000000000000000000000000000000000815260040161109a906125f0565b60405180910390fd5b6110ac816114df565b156110ec576040517f08c379a00000000000000000000000000000000000000000000000000000000081526004016110e39061265c565b60405180910390fd5b6110f86000838361154b565b6001600360008473ffffffffffffffffffffffffffffffffffffffff1673ffffffffffffffffffffffffffffffffffffffff1681526020019081526020016000206000828254611148919061254e565b92505081905550816002600083815260200190815260200160002060006101000a81548173ffffffffffffffffffffffffffffffffffffffff021916908373ffffffffffffffffffffffffffffffffffffffff160217905550808273ffffffffffffffffffffffffffffffffffffffff16600073ffffffffffffffffffffffffffffffffffffffff167fddf252ad1be2c89b69c2b068fc378daa952ba7f163c4a11628f55a4df523b3ef60405160405180910390a461120960008383611550565b5050565b611216826114df565b611255576040517f08c379a000000000000000000000000000000000000000000000000000000000815260040161124c906126ee565b60405180910390fd5b8060066000848152602001908152602001600020908051906020019061127c929190611870565b505050565b6001816000016000828254019250508190555050565b8173ffffffffffffffffffffffffffffffffffffffff168373ffffffffffffffffffffffffffffffffffffffff161415611306576040517f08c379a00000000000000000000000000000000000000000000000000000000081526004016112fd9061275a565b60405180910390fd5b80600560008573ffffffffffffffffffffffffffffffffffffffff1673ffffffffffffffffffffffffffffffffffffffff16815260200190815260200160002060008473ffffffffffffffffffffffffffffffffffffffff1673ffffffffffffffffffffffffffffffffffffffff16815260200190815260200160002060006101000a81548160ff0219169083151502179055508173ffffffffffffffffffffffffffffffffffffffff168373ffffffffffffffffffffffffffffffffffffffff167f17307eab39ab6107e8899845ad3d59bd9653f200f220920489ca2b5937696c31836040516113f791906119c7565b60405180910390a3505050565b61140f848484610dbe565b61141b84848484611555565b61145a576040517f08c379a0000000000000000000000000000000000000000000000000000000008152600401611451906127ec565b60405180910390fd5b50505050565b606060405180602001604052806000815250905090565b606061148282610c1d565b600061148c611460565b905060008151116114ac57604051806020016040528060008152506114d7565b806114b6846116ec565b6040516020016114c79291906123a3565b6040516020818303038152906040525b915050919050565b60008073ffffffffffffffffffffffffffffffffffffffff166002600084815260200190815260200160002060009054906101000a900473ffffffffffffffffffffffffffffffffffffffff1673ffffffffffffffffffffffffffffffffffffffff1614159050919050565b505050565b505050565b60006115768473ffffffffffffffffffffffffffffffffffffffff1661184d565b156116df578373ffffffffffffffffffffffffffffffffffffffff1663150b7a0261159f610c68565b8786866040518563ffffffff1660e01b81526004016115c19493929190612861565b602060405180830381600087803b1580156115db57600080fd5b505af192505050801561160c57506040513d601f19601f8201168201806040525081019061160991906128c2565b60015b61168f573d806000811461163c576040519150601f19603f3d011682016040523d82523d6000602084013e611641565b606091505b50600081511415611687576040517f08c379a000000000000000000000000000000000000000000000000000000000815260040161167e906127ec565b60405180910390fd5b805181602001fd5b63150b7a0260e01b7bffffffffffffffffffffffffffffffffffffffffffffffffffffffff1916817bffffffffffffffffffffffffffffffffffffffffffffffffffffffff1916149150506116e4565b600190505b949350505050565b60606000821415611734576040518060400160405280600181526020017f30000000000000000000000000000000000000000000000000000000000000008152509050611848565b600082905060005b6000821461176657808061174f906128ef565b915050600a8261175f9190612967565b915061173c565b60008167ffffffffffffffff81111561178257611781611c7c565b5b6040519080825280601f01601f1916602001820160405280156117b45781602001600182028036833780820191505090505b5090505b60008514611841576001826117cd919061251a565b9150600a856117dc9190612998565b60306117e8919061254e565b60f81b8183815181106117fe576117fd6129c9565b5b60200101907effffffffffffffffffffffffffffffffffffffffffffffffffffffffffffff1916908160001a905350600a8561183a9190612967565b94506117b8565b8093505050505b919050565b6000808273ffffffffffffffffffffffffffffffffffffffff163b119050919050565b82805461187c90611fef565b90600052602060002090601f01602090048101928261189e57600085556118e5565b82601f106118b757805160ff19168380011785556118e5565b828001600101855582156118e5579182015b828111156118e45782518255916020019190600101906118c9565b5b5090506118f291906118f6565b5090565b5b8082111561190f5760008160009055506001016118f7565b5090565b6000604051905090565b600080fd5b600080fd5b60007fffffffff0000000000000000000000000000000000000000000000000000000082169050919050565b61195c81611927565b811461196757600080fd5b50565b60008135905061197981611953565b92915050565b6000602082840312156119955761199461191d565b5b60006119a38482850161196a565b91505092915050565b60008115159050919050565b6119c1816119ac565b82525050565b60006020820190506119dc60008301846119b8565b92915050565b600081519050919050565b600082825260208201905092915050565b60005b83811015611a1c578082015181840152602081019050611a01565b83811115611a2b576000848401525b50505050565b6000601f19601f8301169050919050565b6000611a4d826119e2565b611a5781856119ed565b9350611a678185602086016119fe565b611a7081611a31565b840191505092915050565b60006020820190508181036000830152611a958184611a42565b905092915050565b6000819050919050565b611ab081611a9d565b8114611abb57600080fd5b50565b600081359050611acd81611aa7565b92915050565b600060208284031215611ae957611ae861191d565b5b6000611af784828501611abe565b91505092915050565b600073ffffffffffffffffffffffffffffffffffffffff82169050919050565b6000611b2b82611b00565b9050919050565b611b3b81611b20565b82525050565b6000602082019050611b566000830184611b32565b92915050565b611b6581611b20565b8114611b7057600080fd5b50565b600081359050611b8281611b5c565b92915050565b60008060408385031215611b9f57611b9e61191d565b5b6000611bad85828601611b73565b9250506020611bbe85828601611abe565b9150509250929050565b600080600060608486031215611be157611be061191d565b5b6000611bef86828701611b73565b9350506020611c0086828701611b73565b9250506040611c1186828701611abe565b9150509250925092565b611c2481611a9d565b82525050565b6000602082019050611c3f6000830184611c1b565b92915050565b600060208284031215611c5b57611c5a61191d565b5b6000611c6984828501611b73565b91505092915050565b600080fd5b600080fd5b7f4e487b7100000000000000000000000000000000000000000000000000000000600052604160045260246000fd5b611cb482611a31565b810181811067ffffffffffffffff82111715611cd357611cd2611c7c565b5b80604052505050565b6000611ce6611913565b9050611cf28282611cab565b919050565b600067ffffffffffffffff821115611d1257611d11611c7c565b5b611d1b82611a31565b9050602081019050919050565b82818337600083830152505050565b6000611d4a611d4584611cf7565b611cdc565b905082815260208101848484011115611d6657611d65611c77565b5b611d71848285611d28565b509392505050565b600082601f830112611d8e57611d8d611c72565b5b8135611d9e848260208601611d37565b91505092915050565b600060208284031215611dbd57611dbc61191d565b5b600082013567ffffffffffffffff811115611ddb57611dda611922565b5b611de784828501611d79565b91505092915050565b611df9816119ac565b8114611e0457600080fd5b50565b600081359050611e1681611df0565b92915050565b60008060408385031215611e3357611e3261191d565b5b6000611e4185828601611b73565b9250506020611e5285828601611e07565b9150509250929050565b600067ffffffffffffffff821115611e7757611e76611c7c565b5b611e8082611a31565b9050602081019050919050565b6000611ea0611e9b84611e5c565b611cdc565b905082815260208101848484011115611ebc57611ebb611c77565b5b611ec7848285611d28565b509392505050565b600082601f830112611ee457611ee3611c72565b5b8135611ef4848260208601611e8d565b91505092915050565b60008060008060808587031215611f1757611f1661191d565b5b6000611f2587828801611b73565b9450506020611f3687828801611b73565b9350506040611f4787828801611abe565b925050606085013567ffffffffffffffff811115611f6857611f67611922565b5b611f7487828801611ecf565b91505092959194509250565b60008060408385031215611f9757611f9661191d565b5b6000611fa585828601611b73565b9250506020611fb685828601611b73565b9150509250929050565b7f4e487b7100000000000000000000000000000000000000000000000000000000600052602260045260246000fd5b6000600282049050600182168061200757607f821691505b6020821081141561201b5761201a611fc0565b5b50919050565b7f4552433732313a20617070726f76616c20746f2063757272656e74206f776e6560008201527f7200000000000000000000000000000000000000000000000000000000000000602082015250565b600061207d6021836119ed565b915061208882612021565b604082019050919050565b600060208201905081810360008301526120ac81612070565b9050919050565b7f4552433732313a20617070726f76652063616c6c6572206973206e6f7420746f60008201527f6b656e206f776e6572206e6f7220617070726f76656420666f7220616c6c0000602082015250565b600061210f603e836119ed565b915061211a826120b3565b604082019050919050565b6000602082019050818103600083015261213e81612102565b9050919050565b7f4552433732313a2063616c6c6572206973206e6f7420746f6b656e206f776e6560008201527f72206e6f7220617070726f766564000000000000000000000000000000000000602082015250565b60006121a1602e836119ed565b91506121ac82612145565b604082019050919050565b600060208201905081810360008301526121d081612194565b9050919050565b7f4552433732313a20696e76616c696420746f6b656e2049440000000000000000600082015250565b600061220d6018836119ed565b9150612218826121d7565b602082019050919050565b6000602082019050818103600083015261223c81612200565b9050919050565b7f4552433732313a2061646472657373207a65726f206973206e6f74206120766160008201527f6c6964206f776e65720000000000000000000000000000000000000000000000602082015250565b600061229f6029836119ed565b91506122aa82612243565b604082019050919050565b600060208201905081810360008301526122ce81612292565b9050919050565b60008160001c9050919050565b6000819050919050565b60006122ff6122fa836122d5565b6122e2565b9050919050565b61230f81611a9d565b82525050565b60208201600080830154905061232a816122ec565b6123376000860182612306565b5050505050565b60006040820190506123536000830185612315565b6123606020830184611c1b565b9392505050565b600081905092915050565b600061237d826119e2565b6123878185612367565b93506123978185602086016119fe565b80840191505092915050565b60006123af8285612372565b91506123bb8284612372565b91508190509392505050565b7f4552433732313a207472616e736665722066726f6d20696e636f72726563742060008201527f6f776e6572000000000000000000000000000000000000000000000000000000602082015250565b60006124236025836119ed565b915061242e826123c7565b604082019050919050565b6000602082019050818103600083015261245281612416565b9050919050565b7f4552433732313a207472616e7366657220746f20746865207a65726f2061646460008201527f7265737300000000000000000000000000000000000000000000000000000000602082015250565b60006124b56024836119ed565b91506124c082612459565b604082019050919050565b600060208201905081810360008301526124e4816124a8565b9050919050565b7f4e487b7100000000000000000000000000000000000000000000000000000000600052601160045260246000fd5b600061252582611a9d565b915061253083611a9d565b925082821015612543576125426124eb565b5b828203905092915050565b600061255982611a9d565b915061256483611a9d565b9250827fffffffffffffffffffffffffffffffffffffffffffffffffffffffffffffffff03821115612599576125986124eb565b5b828201905092915050565b7f4552433732313a206d696e7420746f20746865207a65726f2061646472657373600082015250565b60006125da6020836119ed565b91506125e5826125a4565b602082019050919050565b60006020820190508181036000830152612609816125cd565b9050919050565b7f4552433732313a20746f6b656e20616c7265616479206d696e74656400000000600082015250565b6000612646601c836119ed565b915061265182612610565b602082019050919050565b6000602082019050818103600083015261267581612639565b9050919050565b7f45524337323155524953746f726167653a2055524920736574206f66206e6f6e60008201527f6578697374656e7420746f6b656e000000000000000000000000000000000000602082015250565b60006126d8602e836119ed565b91506126e38261267c565b604082019050919050565b60006020820190508181036000830152612707816126cb565b9050919050565b7f4552433732313a20617070726f766520746f2063616c6c657200000000000000600082015250565b60006127446019836119ed565b915061274f8261270e565b602082019050919050565b6000602082019050818103600083015261277381612737565b9050919050565b7f4552433732313a207472616e7366657220746f206e6f6e20455243373231526560008201527f63656976657220696d706c656d656e7465720000000000000000000000000000602082015250565b60006127d66032836119ed565b91506127e18261277a565b604082019050919050565b60006020820190508181036000830152612805816127c9565b9050919050565b600081519050919050565b600082825260208201905092915050565b60006128338261280c565b61283d8185612817565b935061284d8185602086016119fe565b61285681611a31565b840191505092915050565b60006080820190506128766000830187611b32565b6128836020830186611b32565b6128906040830185611c1b565b81810360608301526128a28184612828565b905095945050505050565b6000815190506128bc81611953565b92915050565b6000602082840312156128d8576128d761191d565b5b60006128e6848285016128ad565b91505092915050565b60006128fa82611a9d565b91507fffffffffffffffffffffffffffffffffffffffffffffffffffffffffffffffff82141561292d5761292c6124eb565b5b600182019050919050565b7f4e487b7100000000000000000000000000000000000000000000000000000000600052601260045260246000fd5b600061297282611a9d565b915061297d83611a9d565b92508261298d5761298c612938565b5b828204905092915050565b60006129a382611a9d565b91506129ae83611a9d565b9250826129be576129bd612938565b5b828206905092915050565b7f4e487b7100000000000000000000000000000000000000000000000000000000600052603260045260246000fdfea264697066735822122005f1d4920bab6a61d857b42e0c3706577c7756e87f85e238f08e2e164670d71064736f6c63430008090033",
  "devdoc": {
    "kind": "dev",
    "methods": {
      "approve(address,uint256)": {
        "details": "See {IERC721-approve}."
      },
      "balanceOf(address)": {
        "details": "See {IERC721-balanceOf}."
      },
      "getApproved(uint256)": {
        "details": "See {IERC721-getApproved}."
      },
      "isApprovedForAll(address,address)": {
        "details": "See {IERC721-isApprovedForAll}."
      },
      "name()": {
        "details": "See {IERC721Metadata-name}."
      },
      "ownerOf(uint256)": {
        "details": "See {IERC721-ownerOf}."
      },
      "safeTransferFrom(address,address,uint256)": {
        "details": "See {IERC721-safeTransferFrom}."
      },
      "safeTransferFrom(address,address,uint256,bytes)": {
        "details": "See {IERC721-safeTransferFrom}."
      },
      "setApprovalForAll(address,bool)": {
        "details": "See {IERC721-setApprovalForAll}."
      },
      "supportsInterface(bytes4)": {
        "details": "See {IERC165-supportsInterface}."
      },
      "symbol()": {
        "details": "See {IERC721Metadata-symbol}."
      },
      "tokenURI(uint256)": {
        "details": "See {IERC721Metadata-tokenURI}."
      },
      "transferFrom(address,address,uint256)": {
        "details": "See {IERC721-transferFrom}."
      }
    },
    "version": 1
  },
  "userdoc": {
    "kind": "user",
    "methods": {},
    "version": 1
  },
  "storageLayout": {
    "storage": [
      {
        "astId": 111,
        "contract": "contracts/Ecommerce.sol:Ecommerce",
        "label": "_name",
        "offset": 0,
        "slot": "0",
        "type": "t_string_storage"
      },
      {
        "astId": 113,
        "contract": "contracts/Ecommerce.sol:Ecommerce",
        "label": "_symbol",
        "offset": 0,
        "slot": "1",
        "type": "t_string_storage"
      },
      {
        "astId": 117,
        "contract": "contracts/Ecommerce.sol:Ecommerce",
        "label": "_owners",
        "offset": 0,
        "slot": "2",
        "type": "t_mapping(t_uint256,t_address)"
      },
      {
        "astId": 121,
        "contract": "contracts/Ecommerce.sol:Ecommerce",
        "label": "_balances",
        "offset": 0,
        "slot": "3",
        "type": "t_mapping(t_address,t_uint256)"
      },
      {
        "astId": 125,
        "contract": "contracts/Ecommerce.sol:Ecommerce",
        "label": "_tokenApprovals",
        "offset": 0,
        "slot": "4",
        "type": "t_mapping(t_uint256,t_address)"
      },
      {
        "astId": 131,
        "contract": "contracts/Ecommerce.sol:Ecommerce",
        "label": "_operatorApprovals",
        "offset": 0,
        "slot": "5",
        "type": "t_mapping(t_address,t_mapping(t_address,t_bool))"
      },
      {
        "astId": 1099,
        "contract": "contracts/Ecommerce.sol:Ecommerce",
        "label": "_tokenURIs",
        "offset": 0,
        "slot": "6",
        "type": "t_mapping(t_uint256,t_string_storage)"
      },
      {
        "astId": 1905,
        "contract": "contracts/Ecommerce.sol:Ecommerce",
        "label": "_tokenIds",
        "offset": 0,
        "slot": "7",
        "type": "t_struct(Counter)1561_storage"
      },
      {
        "astId": 1907,
        "contract": "contracts/Ecommerce.sol:Ecommerce",
        "label": "newId",
        "offset": 0,
        "slot": "8",
        "type": "t_uint256"
      },
      {
        "astId": 1909,
        "contract": "contracts/Ecommerce.sol:Ecommerce",
        "label": "contractAddress",
        "offset": 0,
        "slot": "9",
        "type": "t_address"
      }
    ],
    "types": {
      "t_address": {
        "encoding": "inplace",
        "label": "address",
        "numberOfBytes": "20"
      },
      "t_bool": {
        "encoding": "inplace",
        "label": "bool",
        "numberOfBytes": "1"
      },
      "t_mapping(t_address,t_bool)": {
        "encoding": "mapping",
        "key": "t_address",
        "label": "mapping(address => bool)",
        "numberOfBytes": "32",
        "value": "t_bool"
      },
      "t_mapping(t_address,t_mapping(t_address,t_bool))": {
        "encoding": "mapping",
        "key": "t_address",
        "label": "mapping(address => mapping(address => bool))",
        "numberOfBytes": "32",
        "value": "t_mapping(t_address,t_bool)"
      },
      "t_mapping(t_address,t_uint256)": {
        "encoding": "mapping",
        "key": "t_address",
        "label": "mapping(address => uint256)",
        "numberOfBytes": "32",
        "value": "t_uint256"
      },
      "t_mapping(t_uint256,t_address)": {
        "encoding": "mapping",
        "key": "t_uint256",
        "label": "mapping(uint256 => address)",
        "numberOfBytes": "32",
        "value": "t_address"
      },
      "t_mapping(t_uint256,t_string_storage)": {
        "encoding": "mapping",
        "key": "t_uint256",
        "label": "mapping(uint256 => string)",
        "numberOfBytes": "32",
        "value": "t_string_storage"
      },
      "t_string_storage": {
        "encoding": "bytes",
        "label": "string",
        "numberOfBytes": "32"
      },
      "t_struct(Counter)1561_storage": {
        "encoding": "inplace",
        "label": "struct Counters.Counter",
        "members": [
          {
            "astId": 1560,
            "contract": "contracts/Ecommerce.sol:Ecommerce",
            "label": "_value",
            "offset": 0,
            "slot": "0",
            "type": "t_uint256"
          }
        ],
        "numberOfBytes": "32"
      },
      "t_uint256": {
        "encoding": "inplace",
        "label": "uint256",
        "numberOfBytes": "32"
      }
    }
  }
}