{
  "address": "0x5FC8d32690cc91D4c39d9d3abcBD16989F875707",
  "abi": [
    {
      "inputs": [],
      "stateMutability": "nonpayable",
      "type": "constructor"
    },
    {
      "anonymous": false,
      "inputs": [
        {
          "indexed": false,
          "internalType": "uint256",
          "name": "itemId",
          "type": "uint256"
        },
        {
          "indexed": false,
          "internalType": "address",
          "name": "nftContract",
          "type": "address"
        },
        {
          "indexed": false,
          "internalType": "uint256",
          "name": "tokenId",
          "type": "uint256"
        },
        {
          "indexed": false,
          "internalType": "address",
          "name": "seller",
          "type": "address"
        },
        {
          "indexed": false,
          "internalType": "address",
          "name": "owner",
          "type": "address"
        },
        {
          "indexed": false,
          "internalType": "uint256",
          "name": "price",
          "type": "uint256"
        },
        {
          "indexed": false,
          "internalType": "bool",
          "name": "sold",
          "type": "bool"
        }
      ],
      "name": "MarketItemCreated",
      "type": "event"
    },
    {
      "stateMutability": "payable",
      "type": "fallback"
    },
    {
      "inputs": [],
      "name": "ItemCaller",
      "outputs": [
        {
          "internalType": "address",
          "name": "",
          "type": "address"
        }
      ],
      "stateMutability": "view",
      "type": "function"
    },
    {
      "inputs": [],
      "name": "_itemIds",
      "outputs": [
        {
          "internalType": "uint256",
          "name": "_value",
          "type": "uint256"
        }
      ],
      "stateMutability": "view",
      "type": "function"
    },
    {
      "inputs": [],
      "name": "_itemsSold",
      "outputs": [
        {
          "internalType": "uint256",
          "name": "_value",
          "type": "uint256"
        }
      ],
      "stateMutability": "view",
      "type": "function"
    },
    {
      "inputs": [],
      "name": "fetchItemsCreated",
      "outputs": [
        {
          "components": [
            {
              "internalType": "uint256",
              "name": "itemId",
              "type": "uint256"
            },
            {
              "internalType": "address",
              "name": "nftContract",
              "type": "address"
            },
            {
              "internalType": "uint256",
              "name": "tokenId",
              "type": "uint256"
            },
            {
              "internalType": "address payable",
              "name": "seller",
              "type": "address"
            },
            {
              "internalType": "address payable",
              "name": "owner",
              "type": "address"
            },
            {
              "internalType": "uint256",
              "name": "price",
              "type": "uint256"
            },
            {
              "internalType": "bool",
              "name": "sold",
              "type": "bool"
            }
          ],
          "internalType": "struct EcommerceMarket.MarketItem[]",
          "name": "",
          "type": "tuple[]"
        }
      ],
      "stateMutability": "view",
      "type": "function"
    },
    {
      "inputs": [],
      "name": "fetchMarketItems",
      "outputs": [
        {
          "components": [
            {
              "internalType": "uint256",
              "name": "itemId",
              "type": "uint256"
            },
            {
              "internalType": "address",
              "name": "nftContract",
              "type": "address"
            },
            {
              "internalType": "uint256",
              "name": "tokenId",
              "type": "uint256"
            },
            {
              "internalType": "address payable",
              "name": "seller",
              "type": "address"
            },
            {
              "internalType": "address payable",
              "name": "owner",
              "type": "address"
            },
            {
              "internalType": "uint256",
              "name": "price",
              "type": "uint256"
            },
            {
              "internalType": "bool",
              "name": "sold",
              "type": "bool"
            }
          ],
          "internalType": "struct EcommerceMarket.MarketItem[]",
          "name": "",
          "type": "tuple[]"
        }
      ],
      "stateMutability": "view",
      "type": "function"
    },
    {
      "inputs": [],
      "name": "fetchMarketItems2",
      "outputs": [],
      "stateMutability": "nonpayable",
      "type": "function"
    },
    {
      "inputs": [],
      "name": "fetchMyNFTs",
      "outputs": [
        {
          "components": [
            {
              "internalType": "uint256",
              "name": "itemId",
              "type": "uint256"
            },
            {
              "internalType": "address",
              "name": "nftContract",
              "type": "address"
            },
            {
              "internalType": "uint256",
              "name": "tokenId",
              "type": "uint256"
            },
            {
              "internalType": "address payable",
              "name": "seller",
              "type": "address"
            },
            {
              "internalType": "address payable",
              "name": "owner",
              "type": "address"
            },
            {
              "internalType": "uint256",
              "name": "price",
              "type": "uint256"
            },
            {
              "internalType": "bool",
              "name": "sold",
              "type": "bool"
            }
          ],
          "internalType": "struct EcommerceMarket.MarketItem[]",
          "name": "",
          "type": "tuple[]"
        }
      ],
      "stateMutability": "view",
      "type": "function"
    },
    {
      "inputs": [
        {
          "internalType": "uint256",
          "name": "item",
          "type": "uint256"
        }
      ],
      "name": "getIdToUnsoldMarketItem",
      "outputs": [
        {
          "components": [
            {
              "internalType": "uint256",
              "name": "itemId",
              "type": "uint256"
            },
            {
              "internalType": "address",
              "name": "nftContract",
              "type": "address"
            },
            {
              "internalType": "uint256",
              "name": "tokenId",
              "type": "uint256"
            },
            {
              "internalType": "address payable",
              "name": "seller",
              "type": "address"
            },
            {
              "internalType": "address payable",
              "name": "owner",
              "type": "address"
            },
            {
              "internalType": "uint256",
              "name": "price",
              "type": "uint256"
            },
            {
              "internalType": "bool",
              "name": "sold",
              "type": "bool"
            }
          ],
          "internalType": "struct EcommerceMarket.MarketItem",
          "name": "",
          "type": "tuple"
        }
      ],
      "stateMutability": "view",
      "type": "function"
    },
    {
      "inputs": [],
      "name": "getListingPrice",
      "outputs": [
        {
          "internalType": "uint256",
          "name": "",
          "type": "uint256"
        }
      ],
      "stateMutability": "view",
      "type": "function"
    },
    {
      "inputs": [
        {
          "internalType": "uint256",
          "name": "",
          "type": "uint256"
        }
      ],
      "name": "idToMarketItem",
      "outputs": [
        {
          "internalType": "uint256",
          "name": "itemId",
          "type": "uint256"
        },
        {
          "internalType": "address",
          "name": "nftContract",
          "type": "address"
        },
        {
          "internalType": "uint256",
          "name": "tokenId",
          "type": "uint256"
        },
        {
          "internalType": "address payable",
          "name": "seller",
          "type": "address"
        },
        {
          "internalType": "address payable",
          "name": "owner",
          "type": "address"
        },
        {
          "internalType": "uint256",
          "name": "price",
          "type": "uint256"
        },
        {
          "internalType": "bool",
          "name": "sold",
          "type": "bool"
        }
      ],
      "stateMutability": "view",
      "type": "function"
    },
    {
      "inputs": [
        {
          "internalType": "uint256",
          "name": "",
          "type": "uint256"
        }
      ],
      "name": "idToUnsoldMarketItem",
      "outputs": [
        {
          "internalType": "uint256",
          "name": "itemId",
          "type": "uint256"
        },
        {
          "internalType": "address",
          "name": "nftContract",
          "type": "address"
        },
        {
          "internalType": "uint256",
          "name": "tokenId",
          "type": "uint256"
        },
        {
          "internalType": "address payable",
          "name": "seller",
          "type": "address"
        },
        {
          "internalType": "address payable",
          "name": "owner",
          "type": "address"
        },
        {
          "internalType": "uint256",
          "name": "price",
          "type": "uint256"
        },
        {
          "internalType": "bool",
          "name": "sold",
          "type": "bool"
        }
      ],
      "stateMutability": "view",
      "type": "function"
    },
    {
      "inputs": [
        {
          "internalType": "address",
          "name": "nftContract",
          "type": "address"
        },
        {
          "internalType": "uint256",
          "name": "tokenId",
          "type": "uint256"
        },
        {
          "internalType": "uint256",
          "name": "price",
          "type": "uint256"
        }
      ],
      "name": "productCreate",
      "outputs": [],
      "stateMutability": "payable",
      "type": "function"
    },
    {
      "inputs": [
        {
          "internalType": "address",
          "name": "nftContract",
          "type": "address"
        },
        {
          "internalType": "uint256",
          "name": "itemId",
          "type": "uint256"
        }
      ],
      "name": "productPurchase",
      "outputs": [],
      "stateMutability": "payable",
      "type": "function"
    },
    {
      "inputs": [
        {
          "internalType": "address",
          "name": "nftContract",
          "type": "address"
        },
        {
          "internalType": "uint256",
          "name": "itemId",
          "type": "uint256"
        }
      ],
      "name": "sellMarketItem",
      "outputs": [],
      "stateMutability": "payable",
      "type": "function"
    },
    {
      "inputs": [],
      "name": "unsoldItemCount",
      "outputs": [
        {
          "internalType": "uint256",
          "name": "",
          "type": "uint256"
        }
      ],
      "stateMutability": "view",
      "type": "function"
    },
    {
      "stateMutability": "payable",
      "type": "receive"
    }
  ],
  "transactionHash": "0xfbcf5db360299616024dc0162e1b6921ef9b63b18e8e32da7272e4e6cb2db66b",
  "args": [],
  "numDeployments": 1,
  "solcInputHash": "f33ca0429562aeb565ea9b79cfd09bf8",
  "bytecode": "0x60806040526305f5e10060065534801561001857600080fd5b50600160008190555033600460006101000a81548173ffffffffffffffffffffffffffffffffffffffff021916908373ffffffffffffffffffffffffffffffffffffffff160217905550612a44806100716000396000f3fe6080604052600436106100ec5760003560e01c806387506a0d1161008a578063d71e25b311610059578063d71e25b3146102b4578063e01a8a12146102f1578063e61a70c01461030d578063f064c32e14610350576100f3565b806387506a0d146101ff578063b0916feb1461022a578063ba79c2c114610246578063cd9f918314610289576100f3565b8063202e3740116100c6578063202e3740146101765780632861a89d146101a157806334a7f193146101b857806376e29633146101e3576100f3565b80630f08efe0146100f5578063113a74b01461012057806312e855851461014b576100f3565b366100f357005b005b34801561010157600080fd5b5061010a61037b565b60405161011791906121f9565b60405180910390f35b34801561012c57600080fd5b50610135610620565b604051610142919061222a565b60405180910390f35b34801561015757600080fd5b50610160610626565b60405161016d919061222a565b60405180910390f35b34801561018257600080fd5b5061018b610630565b60405161019891906121f9565b60405180910390f35b3480156101ad57600080fd5b506101b6610970565b005b3480156101c457600080fd5b506101cd610c24565b6040516101da919061222a565b60405180910390f35b6101fd60048036038101906101f891906122a2565b610c30565b005b34801561020b57600080fd5b5061021461107d565b604051610221919061222a565b60405180910390f35b610244600480360381019061023f91906122f5565b611089565b005b34801561025257600080fd5b5061026d60048036038101906102689190612335565b6113db565b604051610280979695949392919061238f565b60405180910390f35b34801561029557600080fd5b5061029e61148a565b6040516102ab91906123fe565b60405180910390f35b3480156102c057600080fd5b506102db60048036038101906102d69190612335565b6114b0565b6040516102e891906124a7565b60405180910390f35b61030b600480360381019061030691906122f5565b611618565b005b34801561031957600080fd5b50610334600480360381019061032f9190612335565b611946565b604051610347979695949392919061238f565b60405180910390f35b34801561035c57600080fd5b506103656119f5565b60405161037291906121f9565b60405180910390f35b606060006103896001611d33565b90506000808267ffffffffffffffff8111156103a8576103a76124c2565b5b6040519080825280602002602001820160405280156103e157816020015b6103ce611fa5565b8152602001906001900390816103c65790505b50905060005b8381101561061657600073ffffffffffffffffffffffffffffffffffffffff166007600083815260200190815260200160002060040160009054906101000a900473ffffffffffffffffffffffffffffffffffffffff1673ffffffffffffffffffffffffffffffffffffffff161415610603576000600760008381526020019081526020016000206000015490506000600760008381526020019081526020016000209050806040518060e0016040529081600082015481526020016001820160009054906101000a900473ffffffffffffffffffffffffffffffffffffffff1673ffffffffffffffffffffffffffffffffffffffff1673ffffffffffffffffffffffffffffffffffffffff168152602001600282015481526020016003820160009054906101000a900473ffffffffffffffffffffffffffffffffffffffff1673ffffffffffffffffffffffffffffffffffffffff1673ffffffffffffffffffffffffffffffffffffffff1681526020016004820160009054906101000a900473ffffffffffffffffffffffffffffffffffffffff1673ffffffffffffffffffffffffffffffffffffffff1673ffffffffffffffffffffffffffffffffffffffff168152602001600582015481526020016006820160009054906101000a900460ff1615151515815250508486815181106105e6576105e56124f1565b5b60200260200101819052506001856105fe919061254f565b945050505b808061060e906125a5565b9150506103e7565b5080935050505090565b60035481565b6000600654905090565b6060600061063e6001611d33565b905060008060005b838110156106db573373ffffffffffffffffffffffffffffffffffffffff166007600083815260200190815260200160002060040160009054906101000a900473ffffffffffffffffffffffffffffffffffffffff1673ffffffffffffffffffffffffffffffffffffffff1614156106c8576001836106c5919061254f565b92505b80806106d3906125a5565b915050610646565b5060008267ffffffffffffffff8111156106f8576106f76124c2565b5b60405190808252806020026020018201604052801561073157816020015b61071e611fa5565b8152602001906001900390816107165790505b50905060005b84811015610965573373ffffffffffffffffffffffffffffffffffffffff166007600083815260200190815260200160002060040160009054906101000a900473ffffffffffffffffffffffffffffffffffffffff1673ffffffffffffffffffffffffffffffffffffffff161415610952576000600760008381526020019081526020016000206000015490506000600760008381526020019081526020016000209050806040518060e0016040529081600082015481526020016001820160009054906101000a900473ffffffffffffffffffffffffffffffffffffffff1673ffffffffffffffffffffffffffffffffffffffff1673ffffffffffffffffffffffffffffffffffffffff168152602001600282015481526020016003820160009054906101000a900473ffffffffffffffffffffffffffffffffffffffff1673ffffffffffffffffffffffffffffffffffffffff1673ffffffffffffffffffffffffffffffffffffffff1681526020016004820160009054906101000a900473ffffffffffffffffffffffffffffffffffffffff1673ffffffffffffffffffffffffffffffffffffffff1673ffffffffffffffffffffffffffffffffffffffff168152602001600582015481526020016006820160009054906101000a900460ff161515151581525050848681518110610935576109346124f1565b5b602002602001018190525060018561094d919061254f565b945050505b808061095d906125a5565b915050610737565b508094505050505090565b600061097c6001611d33565b90506109886002611d33565b6109926001611d33565b61099c91906125ee565b6003819055506000805b82811015610c1f57600073ffffffffffffffffffffffffffffffffffffffff16600760006001846109d7919061254f565b815260200190815260200160002060040160009054906101000a900473ffffffffffffffffffffffffffffffffffffffff1673ffffffffffffffffffffffffffffffffffffffff161415610c0c57600060076000600184610a38919061254f565b815260200190815260200160002060000154905060006007600083815260200190815260200160002090508060086000868152602001908152602001600020600082015481600001556001820160009054906101000a900473ffffffffffffffffffffffffffffffffffffffff168160010160006101000a81548173ffffffffffffffffffffffffffffffffffffffff021916908373ffffffffffffffffffffffffffffffffffffffff160217905550600282015481600201556003820160009054906101000a900473ffffffffffffffffffffffffffffffffffffffff168160030160006101000a81548173ffffffffffffffffffffffffffffffffffffffff021916908373ffffffffffffffffffffffffffffffffffffffff1602179055506004820160009054906101000a900473ffffffffffffffffffffffffffffffffffffffff168160040160006101000a81548173ffffffffffffffffffffffffffffffffffffffff021916908373ffffffffffffffffffffffffffffffffffffffff160217905550600582015481600501556006820160009054906101000a900460ff168160060160006101000a81548160ff021916908315150217905550905050600184610c07919061254f565b935050505b8080610c17906125a5565b9150506109a6565b505050565b60018060000154905081565b60026000541415610c76576040517f08c379a0000000000000000000000000000000000000000000000000000000008152600401610c6d9061267f565b60405180910390fd5b60026000819055506000610c8934611d41565b905060006040518060600160405280602581526020016129ea60259139905060008183604051602001610cbd929190612719565b6040516020818303038152906040529050610d0d6040518060400160405280600c81526020017f6d73672e76616c7565203a20000000000000000000000000000000000000000081525034611eca565b60008411610d50576040517f08c379a0000000000000000000000000000000000000000000000000000000008152600401610d4790612789565b60405180910390fd5b6006543410158190610d98576040517f08c379a0000000000000000000000000000000000000000000000000000000008152600401610d8f91906127f3565b60405180910390fd5b5033600560006101000a81548173ffffffffffffffffffffffffffffffffffffffff021916908373ffffffffffffffffffffffffffffffffffffffff1602179055506000610de66001611d33565b90506040518060e001604052808281526020018873ffffffffffffffffffffffffffffffffffffffff1681526020018781526020013373ffffffffffffffffffffffffffffffffffffffff168152602001600073ffffffffffffffffffffffffffffffffffffffff16815260200186815260200160001515815250600760008381526020019081526020016000206000820151816000015560208201518160010160006101000a81548173ffffffffffffffffffffffffffffffffffffffff021916908373ffffffffffffffffffffffffffffffffffffffff1602179055506040820151816002015560608201518160030160006101000a81548173ffffffffffffffffffffffffffffffffffffffff021916908373ffffffffffffffffffffffffffffffffffffffff16021790555060808201518160040160006101000a81548173ffffffffffffffffffffffffffffffffffffffff021916908373ffffffffffffffffffffffffffffffffffffffff16021790555060a0820151816005015560c08201518160060160006101000a81548160ff0219169083151502179055509050508673ffffffffffffffffffffffffffffffffffffffff166323b872dd3330896040518463ffffffff1660e01b8152600401610fc793929190612815565b600060405180830381600087803b158015610fe157600080fd5b505af1158015610ff5573d6000803e3d6000fd5b505050506110036001611f66565b61100d6002611d33565b6110176001611d33565b61102191906125ee565b6003819055507f045dfa01dcba2b36aba1d3dc4a874f4b0c5d2fbeb8d2c4b34a7d88c8d8f929d18188883360008a6000604051611064979695949392919061284c565b60405180910390a1505050506001600081905550505050565b60028060000154905081565b600260005414156110cf576040517f08c379a00000000000000000000000000000000000000000000000000000000081526004016110c69061267f565b60405180910390fd5b6002600081905550600060076000838152602001908152602001600020600501549050600060076000848152602001908152602001600020600201549050600061111834611d41565b905060006040518060400160405280601181526020017f4e6f7420656e6f75676820546f6b656e20000000000000000000000000000000815250905060008183604051602001611169929190612719565b60405160208183030381529060405290508434101581906111c0576040517f08c379a00000000000000000000000000000000000000000000000000000000081526004016111b791906127f3565b60405180910390fd5b506007600087815260200190815260200160002060030160009054906101000a900473ffffffffffffffffffffffffffffffffffffffff1673ffffffffffffffffffffffffffffffffffffffff166108fc349081150290604051600060405180830381858888f1935050505015801561123d573d6000803e3d6000fd5b508673ffffffffffffffffffffffffffffffffffffffff166323b872dd3033876040518463ffffffff1660e01b815260040161127b93929190612815565b600060405180830381600087803b15801561129557600080fd5b505af11580156112a9573d6000803e3d6000fd5b50505050336007600088815260200190815260200160002060040160006101000a81548173ffffffffffffffffffffffffffffffffffffffff021916908373ffffffffffffffffffffffffffffffffffffffff16021790555060016007600088815260200190815260200160002060060160006101000a81548160ff02191690831515021790555061133b6002611f66565b6113456002611d33565b61134f6001611d33565b61135991906125ee565b600381905550600460009054906101000a900473ffffffffffffffffffffffffffffffffffffffff1673ffffffffffffffffffffffffffffffffffffffff166108fc6006549081150290604051600060405180830381858888f193505050501580156113c9573d6000803e3d6000fd5b50505050505060016000819055505050565b60086020528060005260406000206000915090508060000154908060010160009054906101000a900473ffffffffffffffffffffffffffffffffffffffff16908060020154908060030160009054906101000a900473ffffffffffffffffffffffffffffffffffffffff16908060040160009054906101000a900473ffffffffffffffffffffffffffffffffffffffff16908060050154908060060160009054906101000a900460ff16905087565b600560009054906101000a900473ffffffffffffffffffffffffffffffffffffffff1681565b6114b8611fa5565b600760008381526020019081526020016000206040518060e0016040529081600082015481526020016001820160009054906101000a900473ffffffffffffffffffffffffffffffffffffffff1673ffffffffffffffffffffffffffffffffffffffff1673ffffffffffffffffffffffffffffffffffffffff168152602001600282015481526020016003820160009054906101000a900473ffffffffffffffffffffffffffffffffffffffff1673ffffffffffffffffffffffffffffffffffffffff1673ffffffffffffffffffffffffffffffffffffffff1681526020016004820160009054906101000a900473ffffffffffffffffffffffffffffffffffffffff1673ffffffffffffffffffffffffffffffffffffffff1673ffffffffffffffffffffffffffffffffffffffff168152602001600582015481526020016006820160009054906101000a900460ff1615151515815250509050919050565b6002600054141561165e576040517f08c379a00000000000000000000000000000000000000000000000000000000081526004016116559061267f565b60405180910390fd5b600260008190555060006007600083815260200190815260200160002060050154905060006007600084815260200190815260200160002060020154905060006116a734611d41565b905060006040518060400160405280601181526020017f4e6f7420656e6f75676820546f6b656e200000000000000000000000000000008152509050600081836040516020016116f8929190612719565b604051602081830303815290604052905084341015819061174f576040517f08c379a000000000000000000000000000000000000000000000000000000000815260040161174691906127f3565b60405180910390fd5b506007600087815260200190815260200160002060030160009054906101000a900473ffffffffffffffffffffffffffffffffffffffff1673ffffffffffffffffffffffffffffffffffffffff166108fc349081150290604051600060405180830381858888f193505050501580156117cc573d6000803e3d6000fd5b508673ffffffffffffffffffffffffffffffffffffffff166323b872dd3033876040518463ffffffff1660e01b815260040161180a93929190612815565b600060405180830381600087803b15801561182457600080fd5b505af1158015611838573d6000803e3d6000fd5b50505050336007600088815260200190815260200160002060040160006101000a81548173ffffffffffffffffffffffffffffffffffffffff021916908373ffffffffffffffffffffffffffffffffffffffff16021790555060016007600088815260200190815260200160002060060160006101000a81548160ff0219169083151502179055506118ca6002611f66565b600460009054906101000a900473ffffffffffffffffffffffffffffffffffffffff1673ffffffffffffffffffffffffffffffffffffffff166108fc6006549081150290604051600060405180830381858888f19350505050158015611934573d6000803e3d6000fd5b50505050505060016000819055505050565b60076020528060005260406000206000915090508060000154908060010160009054906101000a900473ffffffffffffffffffffffffffffffffffffffff16908060020154908060030160009054906101000a900473ffffffffffffffffffffffffffffffffffffffff16908060040160009054906101000a900473ffffffffffffffffffffffffffffffffffffffff16908060050154908060060160009054906101000a900460ff16905087565b60606000611a036001611d33565b905060008060005b838111611a9f573373ffffffffffffffffffffffffffffffffffffffff166007600083815260200190815260200160002060030160009054906101000a900473ffffffffffffffffffffffffffffffffffffffff1673ffffffffffffffffffffffffffffffffffffffff161415611a8c57600183611a89919061254f565b92505b8080611a97906125a5565b915050611a0b565b5060008267ffffffffffffffff811115611abc57611abb6124c2565b5b604051908082528060200260200182016040528015611af557816020015b611ae2611fa5565b815260200190600190039081611ada5790505b50905060005b848111611d28573373ffffffffffffffffffffffffffffffffffffffff166007600083815260200190815260200160002060030160009054906101000a900473ffffffffffffffffffffffffffffffffffffffff1673ffffffffffffffffffffffffffffffffffffffff161415611d15576000600760008381526020019081526020016000206000015490506000600760008381526020019081526020016000209050806040518060e0016040529081600082015481526020016001820160009054906101000a900473ffffffffffffffffffffffffffffffffffffffff1673ffffffffffffffffffffffffffffffffffffffff1673ffffffffffffffffffffffffffffffffffffffff168152602001600282015481526020016003820160009054906101000a900473ffffffffffffffffffffffffffffffffffffffff1673ffffffffffffffffffffffffffffffffffffffff1673ffffffffffffffffffffffffffffffffffffffff1681526020016004820160009054906101000a900473ffffffffffffffffffffffffffffffffffffffff1673ffffffffffffffffffffffffffffffffffffffff1673ffffffffffffffffffffffffffffffffffffffff168152602001600582015481526020016006820160009054906101000a900460ff161515151581525050848681518110611cf857611cf76124f1565b5b6020026020010181905250600185611d10919061254f565b945050505b8080611d20906125a5565b915050611afb565b508094505050505090565b600081600001549050919050565b60606000821415611d89576040518060400160405280600181526020017f30000000000000000000000000000000000000000000000000000000000000008152509050611ec5565b600082905060005b60008214611dbb578080611da4906125a5565b915050600a82611db491906128ea565b9150611d91565b60008167ffffffffffffffff811115611dd757611dd66124c2565b5b6040519080825280601f01601f191660200182016040528015611e095781602001600182028036833780820191505090505b50905060008290505b60008614611ebd57600181611e2791906125ee565b90506000600a8088611e3991906128ea565b611e43919061291b565b87611e4e91906125ee565b6030611e5a9190612982565b905060008160f81b905080848481518110611e7857611e776124f1565b5b60200101907effffffffffffffffffffffffffffffffffffffffffffffffffffffffffffff1916908160001a905350600a88611eb491906128ea565b97505050611e12565b819450505050505b919050565b611f628282604051602401611ee09291906129b9565b6040516020818303038152906040527f9710a9d0000000000000000000000000000000000000000000000000000000007bffffffffffffffffffffffffffffffffffffffffffffffffffffffff19166020820180517bffffffffffffffffffffffffffffffffffffffffffffffffffffffff8381831617835250505050611f7c565b5050565b6001816000016000828254019250508190555050565b60008151905060006a636f6e736f6c652e6c6f679050602083016000808483855afa5050505050565b6040518060e0016040528060008152602001600073ffffffffffffffffffffffffffffffffffffffff16815260200160008152602001600073ffffffffffffffffffffffffffffffffffffffff168152602001600073ffffffffffffffffffffffffffffffffffffffff168152602001600081526020016000151581525090565b600081519050919050565b600082825260208201905092915050565b6000819050602082019050919050565b6000819050919050565b61206581612052565b82525050565b600073ffffffffffffffffffffffffffffffffffffffff82169050919050565b60006120968261206b565b9050919050565b6120a68161208b565b82525050565b60006120b78261206b565b9050919050565b6120c7816120ac565b82525050565b60008115159050919050565b6120e2816120cd565b82525050565b60e0820160008201516120fe600085018261205c565b506020820151612111602085018261209d565b506040820151612124604085018261205c565b50606082015161213760608501826120be565b50608082015161214a60808501826120be565b5060a082015161215d60a085018261205c565b5060c082015161217060c08501826120d9565b50505050565b600061218283836120e8565b60e08301905092915050565b6000602082019050919050565b60006121a682612026565b6121b08185612031565b93506121bb83612042565b8060005b838110156121ec5781516121d38882612176565b97506121de8361218e565b9250506001810190506121bf565b5085935050505092915050565b60006020820190508181036000830152612213818461219b565b905092915050565b61222481612052565b82525050565b600060208201905061223f600083018461221b565b92915050565b600080fd5b6122538161208b565b811461225e57600080fd5b50565b6000813590506122708161224a565b92915050565b61227f81612052565b811461228a57600080fd5b50565b60008135905061229c81612276565b92915050565b6000806000606084860312156122bb576122ba612245565b5b60006122c986828701612261565b93505060206122da8682870161228d565b92505060406122eb8682870161228d565b9150509250925092565b6000806040838503121561230c5761230b612245565b5b600061231a85828601612261565b925050602061232b8582860161228d565b9150509250929050565b60006020828403121561234b5761234a612245565b5b60006123598482850161228d565b91505092915050565b61236b8161208b565b82525050565b61237a816120ac565b82525050565b612389816120cd565b82525050565b600060e0820190506123a4600083018a61221b565b6123b16020830189612362565b6123be604083018861221b565b6123cb6060830187612371565b6123d86080830186612371565b6123e560a083018561221b565b6123f260c0830184612380565b98975050505050505050565b60006020820190506124136000830184612362565b92915050565b60e08201600082015161242f600085018261205c565b506020820151612442602085018261209d565b506040820151612455604085018261205c565b50606082015161246860608501826120be565b50608082015161247b60808501826120be565b5060a082015161248e60a085018261205c565b5060c08201516124a160c08501826120d9565b50505050565b600060e0820190506124bc6000830184612419565b92915050565b7f4e487b7100000000000000000000000000000000000000000000000000000000600052604160045260246000fd5b7f4e487b7100000000000000000000000000000000000000000000000000000000600052603260045260246000fd5b7f4e487b7100000000000000000000000000000000000000000000000000000000600052601160045260246000fd5b600061255a82612052565b915061256583612052565b9250827fffffffffffffffffffffffffffffffffffffffffffffffffffffffffffffffff0382111561259a57612599612520565b5b828201905092915050565b60006125b082612052565b91507fffffffffffffffffffffffffffffffffffffffffffffffffffffffffffffffff8214156125e3576125e2612520565b5b600182019050919050565b60006125f982612052565b915061260483612052565b92508282101561261757612616612520565b5b828203905092915050565b600082825260208201905092915050565b7f5265656e7472616e637947756172643a207265656e7472616e742063616c6c00600082015250565b6000612669601f83612622565b915061267482612633565b602082019050919050565b600060208201905081810360008301526126988161265c565b9050919050565b600081519050919050565b600081905092915050565b60005b838110156126d35780820151818401526020810190506126b8565b838111156126e2576000848401525b50505050565b60006126f38261269f565b6126fd81856126aa565b935061270d8185602086016126b5565b80840191505092915050565b600061272582856126e8565b915061273182846126e8565b91508190509392505050565b7f5072696365204d7573742062652067726561746572207468616e203000000000600082015250565b6000612773601c83612622565b915061277e8261273d565b602082019050919050565b600060208201905081810360008301526127a281612766565b9050919050565b6000601f19601f8301169050919050565b60006127c58261269f565b6127cf8185612622565b93506127df8185602086016126b5565b6127e8816127a9565b840191505092915050565b6000602082019050818103600083015261280d81846127ba565b905092915050565b600060608201905061282a6000830186612362565b6128376020830185612362565b612844604083018461221b565b949350505050565b600060e082019050612861600083018a61221b565b61286e6020830189612362565b61287b604083018861221b565b6128886060830187612362565b6128956080830186612362565b6128a260a083018561221b565b6128af60c0830184612380565b98975050505050505050565b7f4e487b7100000000000000000000000000000000000000000000000000000000600052601260045260246000fd5b60006128f582612052565b915061290083612052565b9250826129105761290f6128bb565b5b828204905092915050565b600061292682612052565b915061293183612052565b9250817fffffffffffffffffffffffffffffffffffffffffffffffffffffffffffffffff048311821515161561296a57612969612520565b5b828202905092915050565b600060ff82169050919050565b600061298d82612975565b915061299883612975565b92508260ff038211156129ae576129ad612520565b5b828201905092915050565b600060408201905081810360008301526129d381856127ba565b90506129e2602083018461221b565b939250505056fe5072696365204d75737420626520657175616c20746f206c697374696e6720707269636520a26469706673582212202b968e20f84b42fc3775614fcfeab6035623a240c175d004cbc9fe46c926fed864736f6c63430008090033",
  "devdoc": {
    "kind": "dev",
    "methods": {},
    "version": 1
  },
  "userdoc": {
    "kind": "user",
    "methods": {},
    "version": 1
  },
  "storageLayout": {
    "storage": [
      {
        "astId": 56,
        "contract": "contracts/EcommerceMarket.sol:EcommerceMarket",
        "label": "_status",
        "offset": 0,
        "slot": "0",
        "type": "t_uint256"
      },
      {
        "astId": 2002,
        "contract": "contracts/EcommerceMarket.sol:EcommerceMarket",
        "label": "_itemIds",
        "offset": 0,
        "slot": "1",
        "type": "t_struct(Counter)1561_storage"
      },
      {
        "astId": 2005,
        "contract": "contracts/EcommerceMarket.sol:EcommerceMarket",
        "label": "_itemsSold",
        "offset": 0,
        "slot": "2",
        "type": "t_struct(Counter)1561_storage"
      },
      {
        "astId": 2007,
        "contract": "contracts/EcommerceMarket.sol:EcommerceMarket",
        "label": "unsoldItemCount",
        "offset": 0,
        "slot": "3",
        "type": "t_uint256"
      },
      {
        "astId": 2009,
        "contract": "contracts/EcommerceMarket.sol:EcommerceMarket",
        "label": "owner",
        "offset": 0,
        "slot": "4",
        "type": "t_address_payable"
      },
      {
        "astId": 2011,
        "contract": "contracts/EcommerceMarket.sol:EcommerceMarket",
        "label": "ItemCaller",
        "offset": 0,
        "slot": "5",
        "type": "t_address"
      },
      {
        "astId": 2014,
        "contract": "contracts/EcommerceMarket.sol:EcommerceMarket",
        "label": "listingPrice",
        "offset": 0,
        "slot": "6",
        "type": "t_uint256"
      },
      {
        "astId": 2046,
        "contract": "contracts/EcommerceMarket.sol:EcommerceMarket",
        "label": "idToMarketItem",
        "offset": 0,
        "slot": "7",
        "type": "t_mapping(t_uint256,t_struct(MarketItem)2041_storage)"
      },
      {
        "astId": 2051,
        "contract": "contracts/EcommerceMarket.sol:EcommerceMarket",
        "label": "idToUnsoldMarketItem",
        "offset": 0,
        "slot": "8",
        "type": "t_mapping(t_uint256,t_struct(MarketItem)2041_storage)"
      }
    ],
    "types": {
      "t_address": {
        "encoding": "inplace",
        "label": "address",
        "numberOfBytes": "20"
      },
      "t_address_payable": {
        "encoding": "inplace",
        "label": "address payable",
        "numberOfBytes": "20"
      },
      "t_bool": {
        "encoding": "inplace",
        "label": "bool",
        "numberOfBytes": "1"
      },
      "t_mapping(t_uint256,t_struct(MarketItem)2041_storage)": {
        "encoding": "mapping",
        "key": "t_uint256",
        "label": "mapping(uint256 => struct EcommerceMarket.MarketItem)",
        "numberOfBytes": "32",
        "value": "t_struct(MarketItem)2041_storage"
      },
      "t_struct(Counter)1561_storage": {
        "encoding": "inplace",
        "label": "struct Counters.Counter",
        "members": [
          {
            "astId": 1560,
            "contract": "contracts/EcommerceMarket.sol:EcommerceMarket",
            "label": "_value",
            "offset": 0,
            "slot": "0",
            "type": "t_uint256"
          }
        ],
        "numberOfBytes": "32"
      },
      "t_struct(MarketItem)2041_storage": {
        "encoding": "inplace",
        "label": "struct EcommerceMarket.MarketItem",
        "members": [
          {
            "astId": 2028,
            "contract": "contracts/EcommerceMarket.sol:EcommerceMarket",
            "label": "itemId",
            "offset": 0,
            "slot": "0",
            "type": "t_uint256"
          },
          {
            "astId": 2030,
            "contract": "contracts/EcommerceMarket.sol:EcommerceMarket",
            "label": "nftContract",
            "offset": 0,
            "slot": "1",
            "type": "t_address"
          },
          {
            "astId": 2032,
            "contract": "contracts/EcommerceMarket.sol:EcommerceMarket",
            "label": "tokenId",
            "offset": 0,
            "slot": "2",
            "type": "t_uint256"
          },
          {
            "astId": 2034,
            "contract": "contracts/EcommerceMarket.sol:EcommerceMarket",
            "label": "seller",
            "offset": 0,
            "slot": "3",
            "type": "t_address_payable"
          },
          {
            "astId": 2036,
            "contract": "contracts/EcommerceMarket.sol:EcommerceMarket",
            "label": "owner",
            "offset": 0,
            "slot": "4",
            "type": "t_address_payable"
          },
          {
            "astId": 2038,
            "contract": "contracts/EcommerceMarket.sol:EcommerceMarket",
            "label": "price",
            "offset": 0,
            "slot": "5",
            "type": "t_uint256"
          },
          {
            "astId": 2040,
            "contract": "contracts/EcommerceMarket.sol:EcommerceMarket",
            "label": "sold",
            "offset": 0,
            "slot": "6",
            "type": "t_bool"
          }
        ],
        "numberOfBytes": "224"
      },
      "t_uint256": {
        "encoding": "inplace",
        "label": "uint256",
        "numberOfBytes": "32"
      }
    }
  }
}