{
  "address": "0x0165878A594ca255338adfa4d48449f69242Eb8F",
  "abi": [
    {
      "inputs": [],
      "stateMutability": "nonpayable",
      "type": "constructor"
    },
    {
      "anonymous": false,
      "inputs": [
        {
          "indexed": false,
          "internalType": "uint256",
          "name": "itemId",
          "type": "uint256"
        },
        {
          "indexed": false,
          "internalType": "address",
          "name": "nftContract",
          "type": "address"
        },
        {
          "indexed": false,
          "internalType": "uint256",
          "name": "tokenId",
          "type": "uint256"
        },
        {
          "indexed": false,
          "internalType": "address",
          "name": "seller",
          "type": "address"
        },
        {
          "indexed": false,
          "internalType": "address",
          "name": "owner",
          "type": "address"
        },
        {
          "indexed": false,
          "internalType": "uint256",
          "name": "price",
          "type": "uint256"
        },
        {
          "indexed": false,
          "internalType": "bool",
          "name": "sold",
          "type": "bool"
        }
      ],
      "name": "MarketItemCreated",
      "type": "event"
    },
    {
      "stateMutability": "payable",
      "type": "fallback"
    },
    {
      "inputs": [],
      "name": "ItemCaller",
      "outputs": [
        {
          "internalType": "address",
          "name": "",
          "type": "address"
        }
      ],
      "stateMutability": "view",
      "type": "function"
    },
    {
      "inputs": [],
      "name": "_itemIds",
      "outputs": [
        {
          "internalType": "uint256",
          "name": "_value",
          "type": "uint256"
        }
      ],
      "stateMutability": "view",
      "type": "function"
    },
    {
      "inputs": [],
      "name": "_itemsSold",
      "outputs": [
        {
          "internalType": "uint256",
          "name": "_value",
          "type": "uint256"
        }
      ],
      "stateMutability": "view",
      "type": "function"
    },
    {
      "inputs": [],
      "name": "fetchItemsCreated",
      "outputs": [
        {
          "components": [
            {
              "internalType": "uint256",
              "name": "itemId",
              "type": "uint256"
            },
            {
              "internalType": "address",
              "name": "nftContract",
              "type": "address"
            },
            {
              "internalType": "uint256",
              "name": "tokenId",
              "type": "uint256"
            },
            {
              "internalType": "address payable",
              "name": "seller",
              "type": "address"
            },
            {
              "internalType": "address payable",
              "name": "owner",
              "type": "address"
            },
            {
              "internalType": "uint256",
              "name": "price",
              "type": "uint256"
            },
            {
              "internalType": "bool",
              "name": "sold",
              "type": "bool"
            }
          ],
          "internalType": "struct EcommerceMarket.MarketItem[]",
          "name": "",
          "type": "tuple[]"
        }
      ],
      "stateMutability": "view",
      "type": "function"
    },
    {
      "inputs": [],
      "name": "fetchMarketItems",
      "outputs": [
        {
          "components": [
            {
              "internalType": "uint256",
              "name": "itemId",
              "type": "uint256"
            },
            {
              "internalType": "address",
              "name": "nftContract",
              "type": "address"
            },
            {
              "internalType": "uint256",
              "name": "tokenId",
              "type": "uint256"
            },
            {
              "internalType": "address payable",
              "name": "seller",
              "type": "address"
            },
            {
              "internalType": "address payable",
              "name": "owner",
              "type": "address"
            },
            {
              "internalType": "uint256",
              "name": "price",
              "type": "uint256"
            },
            {
              "internalType": "bool",
              "name": "sold",
              "type": "bool"
            }
          ],
          "internalType": "struct EcommerceMarket.MarketItem[]",
          "name": "",
          "type": "tuple[]"
        }
      ],
      "stateMutability": "view",
      "type": "function"
    },
    {
      "inputs": [],
      "name": "fetchMarketItems2",
      "outputs": [],
      "stateMutability": "nonpayable",
      "type": "function"
    },
    {
      "inputs": [],
      "name": "fetchMyNFTs",
      "outputs": [
        {
          "components": [
            {
              "internalType": "uint256",
              "name": "itemId",
              "type": "uint256"
            },
            {
              "internalType": "address",
              "name": "nftContract",
              "type": "address"
            },
            {
              "internalType": "uint256",
              "name": "tokenId",
              "type": "uint256"
            },
            {
              "internalType": "address payable",
              "name": "seller",
              "type": "address"
            },
            {
              "internalType": "address payable",
              "name": "owner",
              "type": "address"
            },
            {
              "internalType": "uint256",
              "name": "price",
              "type": "uint256"
            },
            {
              "internalType": "bool",
              "name": "sold",
              "type": "bool"
            }
          ],
          "internalType": "struct EcommerceMarket.MarketItem[]",
          "name": "",
          "type": "tuple[]"
        }
      ],
      "stateMutability": "view",
      "type": "function"
    },
    {
      "inputs": [
        {
          "internalType": "uint256",
          "name": "item",
          "type": "uint256"
        }
      ],
      "name": "getIdToUnsoldMarketItem",
      "outputs": [
        {
          "components": [
            {
              "internalType": "uint256",
              "name": "itemId",
              "type": "uint256"
            },
            {
              "internalType": "address",
              "name": "nftContract",
              "type": "address"
            },
            {
              "internalType": "uint256",
              "name": "tokenId",
              "type": "uint256"
            },
            {
              "internalType": "address payable",
              "name": "seller",
              "type": "address"
            },
            {
              "internalType": "address payable",
              "name": "owner",
              "type": "address"
            },
            {
              "internalType": "uint256",
              "name": "price",
              "type": "uint256"
            },
            {
              "internalType": "bool",
              "name": "sold",
              "type": "bool"
            }
          ],
          "internalType": "struct EcommerceMarket.MarketItem",
          "name": "",
          "type": "tuple"
        }
      ],
      "stateMutability": "view",
      "type": "function"
    },
    {
      "inputs": [],
      "name": "getListingPrice",
      "outputs": [
        {
          "internalType": "uint256",
          "name": "",
          "type": "uint256"
        }
      ],
      "stateMutability": "view",
      "type": "function"
    },
    {
      "inputs": [
        {
          "internalType": "uint256",
          "name": "",
          "type": "uint256"
        }
      ],
      "name": "idToMarketItem",
      "outputs": [
        {
          "internalType": "uint256",
          "name": "itemId",
          "type": "uint256"
        },
        {
          "internalType": "address",
          "name": "nftContract",
          "type": "address"
        },
        {
          "internalType": "uint256",
          "name": "tokenId",
          "type": "uint256"
        },
        {
          "internalType": "address payable",
          "name": "seller",
          "type": "address"
        },
        {
          "internalType": "address payable",
          "name": "owner",
          "type": "address"
        },
        {
          "internalType": "uint256",
          "name": "price",
          "type": "uint256"
        },
        {
          "internalType": "bool",
          "name": "sold",
          "type": "bool"
        }
      ],
      "stateMutability": "view",
      "type": "function"
    },
    {
      "inputs": [
        {
          "internalType": "uint256",
          "name": "",
          "type": "uint256"
        }
      ],
      "name": "idToUnsoldMarketItem",
      "outputs": [
        {
          "internalType": "uint256",
          "name": "itemId",
          "type": "uint256"
        },
        {
          "internalType": "address",
          "name": "nftContract",
          "type": "address"
        },
        {
          "internalType": "uint256",
          "name": "tokenId",
          "type": "uint256"
        },
        {
          "internalType": "address payable",
          "name": "seller",
          "type": "address"
        },
        {
          "internalType": "address payable",
          "name": "owner",
          "type": "address"
        },
        {
          "internalType": "uint256",
          "name": "price",
          "type": "uint256"
        },
        {
          "internalType": "bool",
          "name": "sold",
          "type": "bool"
        }
      ],
      "stateMutability": "view",
      "type": "function"
    },
    {
      "inputs": [
        {
          "internalType": "address",
          "name": "nftContract",
          "type": "address"
        },
        {
          "internalType": "uint256",
          "name": "tokenId",
          "type": "uint256"
        },
        {
          "internalType": "uint256",
          "name": "price",
          "type": "uint256"
        }
      ],
      "name": "productCreate",
      "outputs": [],
      "stateMutability": "payable",
      "type": "function"
    },
    {
      "inputs": [
        {
          "internalType": "address",
          "name": "nftContract",
          "type": "address"
        },
        {
          "internalType": "uint256",
          "name": "itemId",
          "type": "uint256"
        }
      ],
      "name": "productPurchase",
      "outputs": [],
      "stateMutability": "payable",
      "type": "function"
    },
    {
      "inputs": [
        {
          "internalType": "address",
          "name": "nftContract",
          "type": "address"
        },
        {
          "internalType": "uint256",
          "name": "itemId",
          "type": "uint256"
        }
      ],
      "name": "sellMarketItem",
      "outputs": [],
      "stateMutability": "payable",
      "type": "function"
    },
    {
      "inputs": [],
      "name": "unsoldItemCount",
      "outputs": [
        {
          "internalType": "uint256",
          "name": "",
          "type": "uint256"
        }
      ],
      "stateMutability": "view",
      "type": "function"
    },
    {
      "stateMutability": "payable",
      "type": "receive"
    }
  ],
  "transactionHash": "0x160d245047ef10ae9cb331d2040ab95e91b5a86a83012dae6cdd81a79d95e4df",
  "args": [],
  "numDeployments": 1,
  "solcInputHash": "9561602fa04587df1c48371b2f9e389b",
  "bytecode": "0x60806040526305f5e10060065534801561001857600080fd5b50600160008190555033600460006101000a81548173ffffffffffffffffffffffffffffffffffffffff021916908373ffffffffffffffffffffffffffffffffffffffff1602179055506129d8806100716000396000f3fe6080604052600436106100ec5760003560e01c806387506a0d1161008a578063d71e25b311610059578063d71e25b3146102b4578063e01a8a12146102f1578063e61a70c01461030d578063f064c32e14610350576100f3565b806387506a0d146101ff578063b0916feb1461022a578063ba79c2c114610246578063cd9f918314610289576100f3565b8063202e3740116100c6578063202e3740146101765780632861a89d146101a157806334a7f193146101b857806376e29633146101e3576100f3565b80630f08efe0146100f5578063113a74b01461012057806312e855851461014b576100f3565b366100f357005b005b34801561010157600080fd5b5061010a61037b565b604051610117919061218d565b60405180910390f35b34801561012c57600080fd5b506101356105b4565b60405161014291906121be565b60405180910390f35b34801561015757600080fd5b506101606105ba565b60405161016d91906121be565b60405180910390f35b34801561018257600080fd5b5061018b6105c4565b604051610198919061218d565b60405180910390f35b3480156101ad57600080fd5b506101b6610904565b005b3480156101c457600080fd5b506101cd610bb8565b6040516101da91906121be565b60405180910390f35b6101fd60048036038101906101f89190612236565b610bc4565b005b34801561020b57600080fd5b50610214611011565b60405161022191906121be565b60405180910390f35b610244600480360381019061023f9190612289565b61101d565b005b34801561025257600080fd5b5061026d600480360381019061026891906122c9565b61136f565b6040516102809796959493929190612323565b60405180910390f35b34801561029557600080fd5b5061029e61141e565b6040516102ab9190612392565b60405180910390f35b3480156102c057600080fd5b506102db60048036038101906102d691906122c9565b611444565b6040516102e8919061243b565b60405180910390f35b61030b60048036038101906103069190612289565b6115ac565b005b34801561031957600080fd5b50610334600480360381019061032f91906122c9565b6118da565b6040516103479796959493929190612323565b60405180910390f35b34801561035c57600080fd5b50610365611989565b604051610372919061218d565b60405180910390f35b606060006103896001611cc7565b90506000808267ffffffffffffffff8111156103a8576103a7612456565b5b6040519080825280602002602001820160405280156103e157816020015b6103ce611f39565b8152602001906001900390816103c65790505b50905060005b838110156105aa576000600760008381526020019081526020016000206000015490506000600760008381526020019081526020016000209050806040518060e0016040529081600082015481526020016001820160009054906101000a900473ffffffffffffffffffffffffffffffffffffffff1673ffffffffffffffffffffffffffffffffffffffff1673ffffffffffffffffffffffffffffffffffffffff168152602001600282015481526020016003820160009054906101000a900473ffffffffffffffffffffffffffffffffffffffff1673ffffffffffffffffffffffffffffffffffffffff1673ffffffffffffffffffffffffffffffffffffffff1681526020016004820160009054906101000a900473ffffffffffffffffffffffffffffffffffffffff1673ffffffffffffffffffffffffffffffffffffffff1673ffffffffffffffffffffffffffffffffffffffff168152602001600582015481526020016006820160009054906101000a900460ff16151515158152505084868151811061057b5761057a612485565b5b602002602001018190525060018561059391906124e3565b9450505080806105a290612539565b9150506103e7565b5080935050505090565b60035481565b6000600654905090565b606060006105d26001611cc7565b905060008060005b8381101561066f573373ffffffffffffffffffffffffffffffffffffffff166007600083815260200190815260200160002060040160009054906101000a900473ffffffffffffffffffffffffffffffffffffffff1673ffffffffffffffffffffffffffffffffffffffff16141561065c5760018361065991906124e3565b92505b808061066790612539565b9150506105da565b5060008267ffffffffffffffff81111561068c5761068b612456565b5b6040519080825280602002602001820160405280156106c557816020015b6106b2611f39565b8152602001906001900390816106aa5790505b50905060005b848110156108f9573373ffffffffffffffffffffffffffffffffffffffff166007600083815260200190815260200160002060040160009054906101000a900473ffffffffffffffffffffffffffffffffffffffff1673ffffffffffffffffffffffffffffffffffffffff1614156108e6576000600760008381526020019081526020016000206000015490506000600760008381526020019081526020016000209050806040518060e0016040529081600082015481526020016001820160009054906101000a900473ffffffffffffffffffffffffffffffffffffffff1673ffffffffffffffffffffffffffffffffffffffff1673ffffffffffffffffffffffffffffffffffffffff168152602001600282015481526020016003820160009054906101000a900473ffffffffffffffffffffffffffffffffffffffff1673ffffffffffffffffffffffffffffffffffffffff1673ffffffffffffffffffffffffffffffffffffffff1681526020016004820160009054906101000a900473ffffffffffffffffffffffffffffffffffffffff1673ffffffffffffffffffffffffffffffffffffffff1673ffffffffffffffffffffffffffffffffffffffff168152602001600582015481526020016006820160009054906101000a900460ff1615151515815250508486815181106108c9576108c8612485565b5b60200260200101819052506001856108e191906124e3565b945050505b80806108f190612539565b9150506106cb565b508094505050505090565b60006109106001611cc7565b905061091c6002611cc7565b6109266001611cc7565b6109309190612582565b6003819055506000805b82811015610bb357600073ffffffffffffffffffffffffffffffffffffffff166007600060018461096b91906124e3565b815260200190815260200160002060040160009054906101000a900473ffffffffffffffffffffffffffffffffffffffff1673ffffffffffffffffffffffffffffffffffffffff161415610ba0576000600760006001846109cc91906124e3565b815260200190815260200160002060000154905060006007600083815260200190815260200160002090508060086000868152602001908152602001600020600082015481600001556001820160009054906101000a900473ffffffffffffffffffffffffffffffffffffffff168160010160006101000a81548173ffffffffffffffffffffffffffffffffffffffff021916908373ffffffffffffffffffffffffffffffffffffffff160217905550600282015481600201556003820160009054906101000a900473ffffffffffffffffffffffffffffffffffffffff168160030160006101000a81548173ffffffffffffffffffffffffffffffffffffffff021916908373ffffffffffffffffffffffffffffffffffffffff1602179055506004820160009054906101000a900473ffffffffffffffffffffffffffffffffffffffff168160040160006101000a81548173ffffffffffffffffffffffffffffffffffffffff021916908373ffffffffffffffffffffffffffffffffffffffff160217905550600582015481600501556006820160009054906101000a900460ff168160060160006101000a81548160ff021916908315150217905550905050600184610b9b91906124e3565b935050505b8080610bab90612539565b91505061093a565b505050565b60018060000154905081565b60026000541415610c0a576040517f08c379a0000000000000000000000000000000000000000000000000000000008152600401610c0190612613565b60405180910390fd5b60026000819055506000610c1d34611cd5565b9050600060405180606001604052806025815260200161297e60259139905060008183604051602001610c519291906126ad565b6040516020818303038152906040529050610ca16040518060400160405280600c81526020017f6d73672e76616c7565203a20000000000000000000000000000000000000000081525034611e5e565b60008411610ce4576040517f08c379a0000000000000000000000000000000000000000000000000000000008152600401610cdb9061271d565b60405180910390fd5b6006543410158190610d2c576040517f08c379a0000000000000000000000000000000000000000000000000000000008152600401610d239190612787565b60405180910390fd5b5033600560006101000a81548173ffffffffffffffffffffffffffffffffffffffff021916908373ffffffffffffffffffffffffffffffffffffffff1602179055506000610d7a6001611cc7565b90506040518060e001604052808281526020018873ffffffffffffffffffffffffffffffffffffffff1681526020018781526020013373ffffffffffffffffffffffffffffffffffffffff168152602001600073ffffffffffffffffffffffffffffffffffffffff16815260200186815260200160001515815250600760008381526020019081526020016000206000820151816000015560208201518160010160006101000a81548173ffffffffffffffffffffffffffffffffffffffff021916908373ffffffffffffffffffffffffffffffffffffffff1602179055506040820151816002015560608201518160030160006101000a81548173ffffffffffffffffffffffffffffffffffffffff021916908373ffffffffffffffffffffffffffffffffffffffff16021790555060808201518160040160006101000a81548173ffffffffffffffffffffffffffffffffffffffff021916908373ffffffffffffffffffffffffffffffffffffffff16021790555060a0820151816005015560c08201518160060160006101000a81548160ff0219169083151502179055509050508673ffffffffffffffffffffffffffffffffffffffff166323b872dd3330896040518463ffffffff1660e01b8152600401610f5b939291906127a9565b600060405180830381600087803b158015610f7557600080fd5b505af1158015610f89573d6000803e3d6000fd5b50505050610f976001611efa565b610fa16002611cc7565b610fab6001611cc7565b610fb59190612582565b6003819055507f045dfa01dcba2b36aba1d3dc4a874f4b0c5d2fbeb8d2c4b34a7d88c8d8f929d18188883360008a6000604051610ff897969594939291906127e0565b60405180910390a1505050506001600081905550505050565b60028060000154905081565b60026000541415611063576040517f08c379a000000000000000000000000000000000000000000000000000000000815260040161105a90612613565b60405180910390fd5b600260008190555060006007600083815260200190815260200160002060050154905060006007600084815260200190815260200160002060020154905060006110ac34611cd5565b905060006040518060400160405280601181526020017f4e6f7420656e6f75676820546f6b656e200000000000000000000000000000008152509050600081836040516020016110fd9291906126ad565b6040516020818303038152906040529050843410158190611154576040517f08c379a000000000000000000000000000000000000000000000000000000000815260040161114b9190612787565b60405180910390fd5b506007600087815260200190815260200160002060030160009054906101000a900473ffffffffffffffffffffffffffffffffffffffff1673ffffffffffffffffffffffffffffffffffffffff166108fc349081150290604051600060405180830381858888f193505050501580156111d1573d6000803e3d6000fd5b508673ffffffffffffffffffffffffffffffffffffffff166323b872dd3033876040518463ffffffff1660e01b815260040161120f939291906127a9565b600060405180830381600087803b15801561122957600080fd5b505af115801561123d573d6000803e3d6000fd5b50505050336007600088815260200190815260200160002060040160006101000a81548173ffffffffffffffffffffffffffffffffffffffff021916908373ffffffffffffffffffffffffffffffffffffffff16021790555060016007600088815260200190815260200160002060060160006101000a81548160ff0219169083151502179055506112cf6002611efa565b6112d96002611cc7565b6112e36001611cc7565b6112ed9190612582565b600381905550600460009054906101000a900473ffffffffffffffffffffffffffffffffffffffff1673ffffffffffffffffffffffffffffffffffffffff166108fc6006549081150290604051600060405180830381858888f1935050505015801561135d573d6000803e3d6000fd5b50505050505060016000819055505050565b60086020528060005260406000206000915090508060000154908060010160009054906101000a900473ffffffffffffffffffffffffffffffffffffffff16908060020154908060030160009054906101000a900473ffffffffffffffffffffffffffffffffffffffff16908060040160009054906101000a900473ffffffffffffffffffffffffffffffffffffffff16908060050154908060060160009054906101000a900460ff16905087565b600560009054906101000a900473ffffffffffffffffffffffffffffffffffffffff1681565b61144c611f39565b600760008381526020019081526020016000206040518060e0016040529081600082015481526020016001820160009054906101000a900473ffffffffffffffffffffffffffffffffffffffff1673ffffffffffffffffffffffffffffffffffffffff1673ffffffffffffffffffffffffffffffffffffffff168152602001600282015481526020016003820160009054906101000a900473ffffffffffffffffffffffffffffffffffffffff1673ffffffffffffffffffffffffffffffffffffffff1673ffffffffffffffffffffffffffffffffffffffff1681526020016004820160009054906101000a900473ffffffffffffffffffffffffffffffffffffffff1673ffffffffffffffffffffffffffffffffffffffff1673ffffffffffffffffffffffffffffffffffffffff168152602001600582015481526020016006820160009054906101000a900460ff1615151515815250509050919050565b600260005414156115f2576040517f08c379a00000000000000000000000000000000000000000000000000000000081526004016115e990612613565b60405180910390fd5b6002600081905550600060076000838152602001908152602001600020600501549050600060076000848152602001908152602001600020600201549050600061163b34611cd5565b905060006040518060400160405280601181526020017f4e6f7420656e6f75676820546f6b656e2000000000000000000000000000000081525090506000818360405160200161168c9291906126ad565b60405160208183030381529060405290508434101581906116e3576040517f08c379a00000000000000000000000000000000000000000000000000000000081526004016116da9190612787565b60405180910390fd5b506007600087815260200190815260200160002060030160009054906101000a900473ffffffffffffffffffffffffffffffffffffffff1673ffffffffffffffffffffffffffffffffffffffff166108fc349081150290604051600060405180830381858888f19350505050158015611760573d6000803e3d6000fd5b508673ffffffffffffffffffffffffffffffffffffffff166323b872dd3033876040518463ffffffff1660e01b815260040161179e939291906127a9565b600060405180830381600087803b1580156117b857600080fd5b505af11580156117cc573d6000803e3d6000fd5b50505050336007600088815260200190815260200160002060040160006101000a81548173ffffffffffffffffffffffffffffffffffffffff021916908373ffffffffffffffffffffffffffffffffffffffff16021790555060016007600088815260200190815260200160002060060160006101000a81548160ff02191690831515021790555061185e6002611efa565b600460009054906101000a900473ffffffffffffffffffffffffffffffffffffffff1673ffffffffffffffffffffffffffffffffffffffff166108fc6006549081150290604051600060405180830381858888f193505050501580156118c8573d6000803e3d6000fd5b50505050505060016000819055505050565b60076020528060005260406000206000915090508060000154908060010160009054906101000a900473ffffffffffffffffffffffffffffffffffffffff16908060020154908060030160009054906101000a900473ffffffffffffffffffffffffffffffffffffffff16908060040160009054906101000a900473ffffffffffffffffffffffffffffffffffffffff16908060050154908060060160009054906101000a900460ff16905087565b606060006119976001611cc7565b905060008060005b838111611a33573373ffffffffffffffffffffffffffffffffffffffff166007600083815260200190815260200160002060030160009054906101000a900473ffffffffffffffffffffffffffffffffffffffff1673ffffffffffffffffffffffffffffffffffffffff161415611a2057600183611a1d91906124e3565b92505b8080611a2b90612539565b91505061199f565b5060008267ffffffffffffffff811115611a5057611a4f612456565b5b604051908082528060200260200182016040528015611a8957816020015b611a76611f39565b815260200190600190039081611a6e5790505b50905060005b848111611cbc573373ffffffffffffffffffffffffffffffffffffffff166007600083815260200190815260200160002060030160009054906101000a900473ffffffffffffffffffffffffffffffffffffffff1673ffffffffffffffffffffffffffffffffffffffff161415611ca9576000600760008381526020019081526020016000206000015490506000600760008381526020019081526020016000209050806040518060e0016040529081600082015481526020016001820160009054906101000a900473ffffffffffffffffffffffffffffffffffffffff1673ffffffffffffffffffffffffffffffffffffffff1673ffffffffffffffffffffffffffffffffffffffff168152602001600282015481526020016003820160009054906101000a900473ffffffffffffffffffffffffffffffffffffffff1673ffffffffffffffffffffffffffffffffffffffff1673ffffffffffffffffffffffffffffffffffffffff1681526020016004820160009054906101000a900473ffffffffffffffffffffffffffffffffffffffff1673ffffffffffffffffffffffffffffffffffffffff1673ffffffffffffffffffffffffffffffffffffffff168152602001600582015481526020016006820160009054906101000a900460ff161515151581525050848681518110611c8c57611c8b612485565b5b6020026020010181905250600185611ca491906124e3565b945050505b8080611cb490612539565b915050611a8f565b508094505050505090565b600081600001549050919050565b60606000821415611d1d576040518060400160405280600181526020017f30000000000000000000000000000000000000000000000000000000000000008152509050611e59565b600082905060005b60008214611d4f578080611d3890612539565b915050600a82611d48919061287e565b9150611d25565b60008167ffffffffffffffff811115611d6b57611d6a612456565b5b6040519080825280601f01601f191660200182016040528015611d9d5781602001600182028036833780820191505090505b50905060008290505b60008614611e5157600181611dbb9190612582565b90506000600a8088611dcd919061287e565b611dd791906128af565b87611de29190612582565b6030611dee9190612916565b905060008160f81b905080848481518110611e0c57611e0b612485565b5b60200101907effffffffffffffffffffffffffffffffffffffffffffffffffffffffffffff1916908160001a905350600a88611e48919061287e565b97505050611da6565b819450505050505b919050565b611ef68282604051602401611e7492919061294d565b6040516020818303038152906040527f9710a9d0000000000000000000000000000000000000000000000000000000007bffffffffffffffffffffffffffffffffffffffffffffffffffffffff19166020820180517bffffffffffffffffffffffffffffffffffffffffffffffffffffffff8381831617835250505050611f10565b5050565b6001816000016000828254019250508190555050565b60008151905060006a636f6e736f6c652e6c6f679050602083016000808483855afa5050505050565b6040518060e0016040528060008152602001600073ffffffffffffffffffffffffffffffffffffffff16815260200160008152602001600073ffffffffffffffffffffffffffffffffffffffff168152602001600073ffffffffffffffffffffffffffffffffffffffff168152602001600081526020016000151581525090565b600081519050919050565b600082825260208201905092915050565b6000819050602082019050919050565b6000819050919050565b611ff981611fe6565b82525050565b600073ffffffffffffffffffffffffffffffffffffffff82169050919050565b600061202a82611fff565b9050919050565b61203a8161201f565b82525050565b600061204b82611fff565b9050919050565b61205b81612040565b82525050565b60008115159050919050565b61207681612061565b82525050565b60e0820160008201516120926000850182611ff0565b5060208201516120a56020850182612031565b5060408201516120b86040850182611ff0565b5060608201516120cb6060850182612052565b5060808201516120de6080850182612052565b5060a08201516120f160a0850182611ff0565b5060c082015161210460c085018261206d565b50505050565b6000612116838361207c565b60e08301905092915050565b6000602082019050919050565b600061213a82611fba565b6121448185611fc5565b935061214f83611fd6565b8060005b83811015612180578151612167888261210a565b975061217283612122565b925050600181019050612153565b5085935050505092915050565b600060208201905081810360008301526121a7818461212f565b905092915050565b6121b881611fe6565b82525050565b60006020820190506121d360008301846121af565b92915050565b600080fd5b6121e78161201f565b81146121f257600080fd5b50565b600081359050612204816121de565b92915050565b61221381611fe6565b811461221e57600080fd5b50565b6000813590506122308161220a565b92915050565b60008060006060848603121561224f5761224e6121d9565b5b600061225d868287016121f5565b935050602061226e86828701612221565b925050604061227f86828701612221565b9150509250925092565b600080604083850312156122a05761229f6121d9565b5b60006122ae858286016121f5565b92505060206122bf85828601612221565b9150509250929050565b6000602082840312156122df576122de6121d9565b5b60006122ed84828501612221565b91505092915050565b6122ff8161201f565b82525050565b61230e81612040565b82525050565b61231d81612061565b82525050565b600060e082019050612338600083018a6121af565b61234560208301896122f6565b61235260408301886121af565b61235f6060830187612305565b61236c6080830186612305565b61237960a08301856121af565b61238660c0830184612314565b98975050505050505050565b60006020820190506123a760008301846122f6565b92915050565b60e0820160008201516123c36000850182611ff0565b5060208201516123d66020850182612031565b5060408201516123e96040850182611ff0565b5060608201516123fc6060850182612052565b50608082015161240f6080850182612052565b5060a082015161242260a0850182611ff0565b5060c082015161243560c085018261206d565b50505050565b600060e08201905061245060008301846123ad565b92915050565b7f4e487b7100000000000000000000000000000000000000000000000000000000600052604160045260246000fd5b7f4e487b7100000000000000000000000000000000000000000000000000000000600052603260045260246000fd5b7f4e487b7100000000000000000000000000000000000000000000000000000000600052601160045260246000fd5b60006124ee82611fe6565b91506124f983611fe6565b9250827fffffffffffffffffffffffffffffffffffffffffffffffffffffffffffffffff0382111561252e5761252d6124b4565b5b828201905092915050565b600061254482611fe6565b91507fffffffffffffffffffffffffffffffffffffffffffffffffffffffffffffffff821415612577576125766124b4565b5b600182019050919050565b600061258d82611fe6565b915061259883611fe6565b9250828210156125ab576125aa6124b4565b5b828203905092915050565b600082825260208201905092915050565b7f5265656e7472616e637947756172643a207265656e7472616e742063616c6c00600082015250565b60006125fd601f836125b6565b9150612608826125c7565b602082019050919050565b6000602082019050818103600083015261262c816125f0565b9050919050565b600081519050919050565b600081905092915050565b60005b8381101561266757808201518184015260208101905061264c565b83811115612676576000848401525b50505050565b600061268782612633565b612691818561263e565b93506126a1818560208601612649565b80840191505092915050565b60006126b9828561267c565b91506126c5828461267c565b91508190509392505050565b7f5072696365204d7573742062652067726561746572207468616e203000000000600082015250565b6000612707601c836125b6565b9150612712826126d1565b602082019050919050565b60006020820190508181036000830152612736816126fa565b9050919050565b6000601f19601f8301169050919050565b600061275982612633565b61276381856125b6565b9350612773818560208601612649565b61277c8161273d565b840191505092915050565b600060208201905081810360008301526127a1818461274e565b905092915050565b60006060820190506127be60008301866122f6565b6127cb60208301856122f6565b6127d860408301846121af565b949350505050565b600060e0820190506127f5600083018a6121af565b61280260208301896122f6565b61280f60408301886121af565b61281c60608301876122f6565b61282960808301866122f6565b61283660a08301856121af565b61284360c0830184612314565b98975050505050505050565b7f4e487b7100000000000000000000000000000000000000000000000000000000600052601260045260246000fd5b600061288982611fe6565b915061289483611fe6565b9250826128a4576128a361284f565b5b828204905092915050565b60006128ba82611fe6565b91506128c583611fe6565b9250817fffffffffffffffffffffffffffffffffffffffffffffffffffffffffffffffff04831182151516156128fe576128fd6124b4565b5b828202905092915050565b600060ff82169050919050565b600061292182612909565b915061292c83612909565b92508260ff03821115612942576129416124b4565b5b828201905092915050565b60006040820190508181036000830152612967818561274e565b905061297660208301846121af565b939250505056fe5072696365204d75737420626520657175616c20746f206c697374696e6720707269636520a264697066735822122029250e1a004c285b1bb37aa2b2004fc92127d6120a8a79cda479ef805a7b2da464736f6c63430008090033",
  "devdoc": {
    "kind": "dev",
    "methods": {},
    "version": 1
  },
  "userdoc": {
    "kind": "user",
    "methods": {},
    "version": 1
  },
  "storageLayout": {
    "storage": [
      {
        "astId": 56,
        "contract": "contracts/EcommerceMarket.sol:EcommerceMarket",
        "label": "_status",
        "offset": 0,
        "slot": "0",
        "type": "t_uint256"
      },
      {
        "astId": 2002,
        "contract": "contracts/EcommerceMarket.sol:EcommerceMarket",
        "label": "_itemIds",
        "offset": 0,
        "slot": "1",
        "type": "t_struct(Counter)1561_storage"
      },
      {
        "astId": 2005,
        "contract": "contracts/EcommerceMarket.sol:EcommerceMarket",
        "label": "_itemsSold",
        "offset": 0,
        "slot": "2",
        "type": "t_struct(Counter)1561_storage"
      },
      {
        "astId": 2007,
        "contract": "contracts/EcommerceMarket.sol:EcommerceMarket",
        "label": "unsoldItemCount",
        "offset": 0,
        "slot": "3",
        "type": "t_uint256"
      },
      {
        "astId": 2009,
        "contract": "contracts/EcommerceMarket.sol:EcommerceMarket",
        "label": "owner",
        "offset": 0,
        "slot": "4",
        "type": "t_address_payable"
      },
      {
        "astId": 2011,
        "contract": "contracts/EcommerceMarket.sol:EcommerceMarket",
        "label": "ItemCaller",
        "offset": 0,
        "slot": "5",
        "type": "t_address"
      },
      {
        "astId": 2014,
        "contract": "contracts/EcommerceMarket.sol:EcommerceMarket",
        "label": "listingPrice",
        "offset": 0,
        "slot": "6",
        "type": "t_uint256"
      },
      {
        "astId": 2046,
        "contract": "contracts/EcommerceMarket.sol:EcommerceMarket",
        "label": "idToMarketItem",
        "offset": 0,
        "slot": "7",
        "type": "t_mapping(t_uint256,t_struct(MarketItem)2041_storage)"
      },
      {
        "astId": 2051,
        "contract": "contracts/EcommerceMarket.sol:EcommerceMarket",
        "label": "idToUnsoldMarketItem",
        "offset": 0,
        "slot": "8",
        "type": "t_mapping(t_uint256,t_struct(MarketItem)2041_storage)"
      }
    ],
    "types": {
      "t_address": {
        "encoding": "inplace",
        "label": "address",
        "numberOfBytes": "20"
      },
      "t_address_payable": {
        "encoding": "inplace",
        "label": "address payable",
        "numberOfBytes": "20"
      },
      "t_bool": {
        "encoding": "inplace",
        "label": "bool",
        "numberOfBytes": "1"
      },
      "t_mapping(t_uint256,t_struct(MarketItem)2041_storage)": {
        "encoding": "mapping",
        "key": "t_uint256",
        "label": "mapping(uint256 => struct EcommerceMarket.MarketItem)",
        "numberOfBytes": "32",
        "value": "t_struct(MarketItem)2041_storage"
      },
      "t_struct(Counter)1561_storage": {
        "encoding": "inplace",
        "label": "struct Counters.Counter",
        "members": [
          {
            "astId": 1560,
            "contract": "contracts/EcommerceMarket.sol:EcommerceMarket",
            "label": "_value",
            "offset": 0,
            "slot": "0",
            "type": "t_uint256"
          }
        ],
        "numberOfBytes": "32"
      },
      "t_struct(MarketItem)2041_storage": {
        "encoding": "inplace",
        "label": "struct EcommerceMarket.MarketItem",
        "members": [
          {
            "astId": 2028,
            "contract": "contracts/EcommerceMarket.sol:EcommerceMarket",
            "label": "itemId",
            "offset": 0,
            "slot": "0",
            "type": "t_uint256"
          },
          {
            "astId": 2030,
            "contract": "contracts/EcommerceMarket.sol:EcommerceMarket",
            "label": "nftContract",
            "offset": 0,
            "slot": "1",
            "type": "t_address"
          },
          {
            "astId": 2032,
            "contract": "contracts/EcommerceMarket.sol:EcommerceMarket",
            "label": "tokenId",
            "offset": 0,
            "slot": "2",
            "type": "t_uint256"
          },
          {
            "astId": 2034,
            "contract": "contracts/EcommerceMarket.sol:EcommerceMarket",
            "label": "seller",
            "offset": 0,
            "slot": "3",
            "type": "t_address_payable"
          },
          {
            "astId": 2036,
            "contract": "contracts/EcommerceMarket.sol:EcommerceMarket",
            "label": "owner",
            "offset": 0,
            "slot": "4",
            "type": "t_address_payable"
          },
          {
            "astId": 2038,
            "contract": "contracts/EcommerceMarket.sol:EcommerceMarket",
            "label": "price",
            "offset": 0,
            "slot": "5",
            "type": "t_uint256"
          },
          {
            "astId": 2040,
            "contract": "contracts/EcommerceMarket.sol:EcommerceMarket",
            "label": "sold",
            "offset": 0,
            "slot": "6",
            "type": "t_bool"
          }
        ],
        "numberOfBytes": "224"
      },
      "t_uint256": {
        "encoding": "inplace",
        "label": "uint256",
        "numberOfBytes": "32"
      }
    }
  }
}