{
  "address": "0xD97729A5e2C31E9E9d54E7aEd1aF4E63714Fca35",
  "abi": [
    {
      "inputs": [],
      "stateMutability": "nonpayable",
      "type": "constructor"
    },
    {
      "anonymous": false,
      "inputs": [
        {
          "indexed": false,
          "internalType": "uint256",
          "name": "itemId",
          "type": "uint256"
        },
        {
          "indexed": false,
          "internalType": "address",
          "name": "nftContract",
          "type": "address"
        },
        {
          "indexed": false,
          "internalType": "uint256",
          "name": "tokenId",
          "type": "uint256"
        },
        {
          "indexed": false,
          "internalType": "address",
          "name": "seller",
          "type": "address"
        },
        {
          "indexed": false,
          "internalType": "address",
          "name": "owner",
          "type": "address"
        },
        {
          "indexed": false,
          "internalType": "uint256",
          "name": "price",
          "type": "uint256"
        },
        {
          "indexed": false,
          "internalType": "bool",
          "name": "sold",
          "type": "bool"
        }
      ],
      "name": "MarketItemCreated",
      "type": "event"
    },
    {
      "inputs": [],
      "name": "ItemCaller",
      "outputs": [
        {
          "internalType": "address",
          "name": "",
          "type": "address"
        }
      ],
      "stateMutability": "view",
      "type": "function"
    },
    {
      "inputs": [],
      "name": "_itemIds",
      "outputs": [
        {
          "internalType": "uint256",
          "name": "_value",
          "type": "uint256"
        }
      ],
      "stateMutability": "view",
      "type": "function"
    },
    {
      "inputs": [],
      "name": "_itemsSold",
      "outputs": [
        {
          "internalType": "uint256",
          "name": "_value",
          "type": "uint256"
        }
      ],
      "stateMutability": "view",
      "type": "function"
    },
    {
      "inputs": [
        {
          "internalType": "address",
          "name": "nftContract",
          "type": "address"
        },
        {
          "internalType": "uint256",
          "name": "tokenId",
          "type": "uint256"
        },
        {
          "internalType": "uint256",
          "name": "price",
          "type": "uint256"
        }
      ],
      "name": "createMarketItem",
      "outputs": [],
      "stateMutability": "payable",
      "type": "function"
    },
    {
      "inputs": [],
      "name": "fetchItemsCreated",
      "outputs": [
        {
          "components": [
            {
              "internalType": "uint256",
              "name": "itemId",
              "type": "uint256"
            },
            {
              "internalType": "address",
              "name": "nftContract",
              "type": "address"
            },
            {
              "internalType": "uint256",
              "name": "tokenId",
              "type": "uint256"
            },
            {
              "internalType": "address payable",
              "name": "seller",
              "type": "address"
            },
            {
              "internalType": "address payable",
              "name": "owner",
              "type": "address"
            },
            {
              "internalType": "uint256",
              "name": "price",
              "type": "uint256"
            },
            {
              "internalType": "bool",
              "name": "sold",
              "type": "bool"
            }
          ],
          "internalType": "struct EcommerceMarket.MarketItem[]",
          "name": "",
          "type": "tuple[]"
        }
      ],
      "stateMutability": "view",
      "type": "function"
    },
    {
      "inputs": [],
      "name": "fetchMarketItems",
      "outputs": [
        {
          "components": [
            {
              "internalType": "uint256",
              "name": "itemId",
              "type": "uint256"
            },
            {
              "internalType": "address",
              "name": "nftContract",
              "type": "address"
            },
            {
              "internalType": "uint256",
              "name": "tokenId",
              "type": "uint256"
            },
            {
              "internalType": "address payable",
              "name": "seller",
              "type": "address"
            },
            {
              "internalType": "address payable",
              "name": "owner",
              "type": "address"
            },
            {
              "internalType": "uint256",
              "name": "price",
              "type": "uint256"
            },
            {
              "internalType": "bool",
              "name": "sold",
              "type": "bool"
            }
          ],
          "internalType": "struct EcommerceMarket.MarketItem[]",
          "name": "",
          "type": "tuple[]"
        }
      ],
      "stateMutability": "nonpayable",
      "type": "function"
    },
    {
      "inputs": [],
      "name": "fetchMarketItems2",
      "outputs": [],
      "stateMutability": "nonpayable",
      "type": "function"
    },
    {
      "inputs": [],
      "name": "fetchMyNFTs",
      "outputs": [
        {
          "components": [
            {
              "internalType": "uint256",
              "name": "itemId",
              "type": "uint256"
            },
            {
              "internalType": "address",
              "name": "nftContract",
              "type": "address"
            },
            {
              "internalType": "uint256",
              "name": "tokenId",
              "type": "uint256"
            },
            {
              "internalType": "address payable",
              "name": "seller",
              "type": "address"
            },
            {
              "internalType": "address payable",
              "name": "owner",
              "type": "address"
            },
            {
              "internalType": "uint256",
              "name": "price",
              "type": "uint256"
            },
            {
              "internalType": "bool",
              "name": "sold",
              "type": "bool"
            }
          ],
          "internalType": "struct EcommerceMarket.MarketItem[]",
          "name": "",
          "type": "tuple[]"
        }
      ],
      "stateMutability": "view",
      "type": "function"
    },
    {
      "inputs": [],
      "name": "getListingPrice",
      "outputs": [
        {
          "internalType": "uint256",
          "name": "",
          "type": "uint256"
        }
      ],
      "stateMutability": "view",
      "type": "function"
    },
    {
      "inputs": [
        {
          "internalType": "uint256",
          "name": "",
          "type": "uint256"
        }
      ],
      "name": "idToMarketItem",
      "outputs": [
        {
          "internalType": "uint256",
          "name": "itemId",
          "type": "uint256"
        },
        {
          "internalType": "address",
          "name": "nftContract",
          "type": "address"
        },
        {
          "internalType": "uint256",
          "name": "tokenId",
          "type": "uint256"
        },
        {
          "internalType": "address payable",
          "name": "seller",
          "type": "address"
        },
        {
          "internalType": "address payable",
          "name": "owner",
          "type": "address"
        },
        {
          "internalType": "uint256",
          "name": "price",
          "type": "uint256"
        },
        {
          "internalType": "bool",
          "name": "sold",
          "type": "bool"
        }
      ],
      "stateMutability": "view",
      "type": "function"
    },
    {
      "inputs": [
        {
          "internalType": "uint256",
          "name": "",
          "type": "uint256"
        }
      ],
      "name": "idToUnsoldMarketItem",
      "outputs": [
        {
          "internalType": "uint256",
          "name": "itemId",
          "type": "uint256"
        },
        {
          "internalType": "address",
          "name": "nftContract",
          "type": "address"
        },
        {
          "internalType": "uint256",
          "name": "tokenId",
          "type": "uint256"
        },
        {
          "internalType": "address payable",
          "name": "seller",
          "type": "address"
        },
        {
          "internalType": "address payable",
          "name": "owner",
          "type": "address"
        },
        {
          "internalType": "uint256",
          "name": "price",
          "type": "uint256"
        },
        {
          "internalType": "bool",
          "name": "sold",
          "type": "bool"
        }
      ],
      "stateMutability": "view",
      "type": "function"
    },
    {
      "inputs": [
        {
          "internalType": "address",
          "name": "nftContract",
          "type": "address"
        },
        {
          "internalType": "uint256",
          "name": "itemId",
          "type": "uint256"
        }
      ],
      "name": "sellMarketItem",
      "outputs": [],
      "stateMutability": "payable",
      "type": "function"
    },
    {
      "inputs": [],
      "name": "unsoldItemCount",
      "outputs": [
        {
          "internalType": "uint256",
          "name": "",
          "type": "uint256"
        }
      ],
      "stateMutability": "view",
      "type": "function"
    }
  ],
  "transactionHash": "0x7054b0103d53d3a96856b44f217ff6ad15c804b00ad26395ed1d331d0d568631",
  "args": [],
  "numDeployments": 2,
  "solcInputHash": "291b284c6cc703a2209cf6aa6eb731e8",
  "bytecode": "0x60806040526305f5e10060065534801561001857600080fd5b50600160008190555033600460006101000a81548173ffffffffffffffffffffffffffffffffffffffff021916908373ffffffffffffffffffffffffffffffffffffffff1602179055506124be806100716000396000f3fe6080604052600436106100c25760003560e01c806358eb2df51161007f578063ba79c2c111610059578063ba79c2c114610218578063cd9f91831461025b578063e61a70c014610286578063f064c32e146102c9576100c2565b806358eb2df5146101b557806387506a0d146101d1578063b0916feb146101fc576100c2565b80630f08efe0146100c7578063113a74b0146100f257806312e855851461011d578063202e3740146101485780632861a89d1461017357806334a7f1931461018a575b600080fd5b3480156100d357600080fd5b506100dc6102f4565b6040516100e99190611d1c565b60405180910390f35b3480156100fe57600080fd5b506101076105d7565b6040516101149190611d4d565b60405180910390f35b34801561012957600080fd5b506101326105dd565b60405161013f9190611d4d565b60405180910390f35b34801561015457600080fd5b5061015d6105e7565b60405161016a9190611d1c565b60405180910390f35b34801561017f57600080fd5b5061018861094b565b005b34801561019657600080fd5b5061019f610bff565b6040516101ac9190611d4d565b60405180910390f35b6101cf60048036038101906101ca9190611dc5565b610c0b565b005b3480156101dd57600080fd5b506101e6611034565b6040516101f39190611d4d565b60405180910390f35b61021660048036038101906102119190611e18565b611040565b005b34801561022457600080fd5b5061023f600480360381019061023a9190611e58565b61136e565b6040516102529796959493929190611eb2565b60405180910390f35b34801561026757600080fd5b5061027061141d565b60405161027d9190611f21565b60405180910390f35b34801561029257600080fd5b506102ad60048036038101906102a89190611e58565b611443565b6040516102c09796959493929190611eb2565b60405180910390f35b3480156102d557600080fd5b506102de6114f2565b6040516102eb9190611d1c565b60405180910390f35b606060006103026001611856565b905061030e6002611856565b6103186001611856565b6103229190611f6b565b60038190555060008060035467ffffffffffffffff81111561034757610346611f9f565b5b60405190808252806020026020018201604052801561038057816020015b61036d611ac8565b8152602001906001900390816103655790505b50905060005b838110156105cd57600073ffffffffffffffffffffffffffffffffffffffff16600760006001846103b79190611fce565b815260200190815260200160002060040160009054906101000a900473ffffffffffffffffffffffffffffffffffffffff1673ffffffffffffffffffffffffffffffffffffffff1614156105ba576000600760006001846104189190611fce565b81526020019081526020016000206000015490506000600760008381526020019081526020016000209050806040518060e0016040529081600082015481526020016001820160009054906101000a900473ffffffffffffffffffffffffffffffffffffffff1673ffffffffffffffffffffffffffffffffffffffff1673ffffffffffffffffffffffffffffffffffffffff168152602001600282015481526020016003820160009054906101000a900473ffffffffffffffffffffffffffffffffffffffff1673ffffffffffffffffffffffffffffffffffffffff1673ffffffffffffffffffffffffffffffffffffffff1681526020016004820160009054906101000a900473ffffffffffffffffffffffffffffffffffffffff1673ffffffffffffffffffffffffffffffffffffffff1673ffffffffffffffffffffffffffffffffffffffff168152602001600582015481526020016006820160009054906101000a900460ff16151515158152505084868151811061059d5761059c612024565b5b60200260200101819052506001856105b59190611fce565b945050505b80806105c590612053565b915050610386565b5080935050505090565b60035481565b6000600654905090565b606060006105f56001611856565b905060008060005b8381101561069e573373ffffffffffffffffffffffffffffffffffffffff166007600060018461062d9190611fce565b815260200190815260200160002060040160009054906101000a900473ffffffffffffffffffffffffffffffffffffffff1673ffffffffffffffffffffffffffffffffffffffff16141561068b576001836106889190611fce565b92505b808061069690612053565b9150506105fd565b5060008267ffffffffffffffff8111156106bb576106ba611f9f565b5b6040519080825280602002602001820160405280156106f457816020015b6106e1611ac8565b8152602001906001900390816106d95790505b50905060005b84811015610940573373ffffffffffffffffffffffffffffffffffffffff166007600060018461072a9190611fce565b815260200190815260200160002060040160009054906101000a900473ffffffffffffffffffffffffffffffffffffffff1673ffffffffffffffffffffffffffffffffffffffff16141561092d5760006007600060018461078b9190611fce565b81526020019081526020016000206000015490506000600760008381526020019081526020016000209050806040518060e0016040529081600082015481526020016001820160009054906101000a900473ffffffffffffffffffffffffffffffffffffffff1673ffffffffffffffffffffffffffffffffffffffff1673ffffffffffffffffffffffffffffffffffffffff168152602001600282015481526020016003820160009054906101000a900473ffffffffffffffffffffffffffffffffffffffff1673ffffffffffffffffffffffffffffffffffffffff1673ffffffffffffffffffffffffffffffffffffffff1681526020016004820160009054906101000a900473ffffffffffffffffffffffffffffffffffffffff1673ffffffffffffffffffffffffffffffffffffffff1673ffffffffffffffffffffffffffffffffffffffff168152602001600582015481526020016006820160009054906101000a900460ff1615151515815250508486815181106109105761090f612024565b5b60200260200101819052506001856109289190611fce565b945050505b808061093890612053565b9150506106fa565b508094505050505090565b60006109576001611856565b90506109636002611856565b61096d6001611856565b6109779190611f6b565b6003819055506000805b82811015610bfa57600073ffffffffffffffffffffffffffffffffffffffff16600760006001846109b29190611fce565b815260200190815260200160002060040160009054906101000a900473ffffffffffffffffffffffffffffffffffffffff1673ffffffffffffffffffffffffffffffffffffffff161415610be757600060076000600184610a139190611fce565b815260200190815260200160002060000154905060006007600083815260200190815260200160002090508060086000868152602001908152602001600020600082015481600001556001820160009054906101000a900473ffffffffffffffffffffffffffffffffffffffff168160010160006101000a81548173ffffffffffffffffffffffffffffffffffffffff021916908373ffffffffffffffffffffffffffffffffffffffff160217905550600282015481600201556003820160009054906101000a900473ffffffffffffffffffffffffffffffffffffffff168160030160006101000a81548173ffffffffffffffffffffffffffffffffffffffff021916908373ffffffffffffffffffffffffffffffffffffffff1602179055506004820160009054906101000a900473ffffffffffffffffffffffffffffffffffffffff168160040160006101000a81548173ffffffffffffffffffffffffffffffffffffffff021916908373ffffffffffffffffffffffffffffffffffffffff160217905550600582015481600501556006820160009054906101000a900460ff168160060160006101000a81548160ff021916908315150217905550905050600184610be29190611fce565b935050505b8080610bf290612053565b915050610981565b505050565b60018060000154905081565b60026000541415610c51576040517f08c379a0000000000000000000000000000000000000000000000000000000008152600401610c48906120f9565b60405180910390fd5b60026000819055506000610c6434611864565b9050600060405180606001604052806025815260200161246460259139905060008183604051602001610c98929190612193565b6040516020818303038152906040529050610ce86040518060400160405280600c81526020017f6d73672e76616c7565203a200000000000000000000000000000000000000000815250346119ed565b60008411610d2b576040517f08c379a0000000000000000000000000000000000000000000000000000000008152600401610d2290612203565b60405180910390fd5b6006543410158190610d73576040517f08c379a0000000000000000000000000000000000000000000000000000000008152600401610d6a919061226d565b60405180910390fd5b5033600560006101000a81548173ffffffffffffffffffffffffffffffffffffffff021916908373ffffffffffffffffffffffffffffffffffffffff160217905550610dbf6001611a89565b6000610dcb6001611856565b90506040518060e001604052808281526020018873ffffffffffffffffffffffffffffffffffffffff1681526020018781526020013373ffffffffffffffffffffffffffffffffffffffff168152602001600073ffffffffffffffffffffffffffffffffffffffff16815260200186815260200160001515815250600760008381526020019081526020016000206000820151816000015560208201518160010160006101000a81548173ffffffffffffffffffffffffffffffffffffffff021916908373ffffffffffffffffffffffffffffffffffffffff1602179055506040820151816002015560608201518160030160006101000a81548173ffffffffffffffffffffffffffffffffffffffff021916908373ffffffffffffffffffffffffffffffffffffffff16021790555060808201518160040160006101000a81548173ffffffffffffffffffffffffffffffffffffffff021916908373ffffffffffffffffffffffffffffffffffffffff16021790555060a0820151816005015560c08201518160060160006101000a81548160ff0219169083151502179055509050508673ffffffffffffffffffffffffffffffffffffffff166323b872dd3330896040518463ffffffff1660e01b8152600401610fac9392919061228f565b600060405180830381600087803b158015610fc657600080fd5b505af1158015610fda573d6000803e3d6000fd5b505050507f045dfa01dcba2b36aba1d3dc4a874f4b0c5d2fbeb8d2c4b34a7d88c8d8f929d18188883360008a600060405161101b97969594939291906122c6565b60405180910390a1505050506001600081905550505050565b60028060000154905081565b60026000541415611086576040517f08c379a000000000000000000000000000000000000000000000000000000000815260040161107d906120f9565b60405180910390fd5b600260008190555060006007600083815260200190815260200160002060050154905060006007600084815260200190815260200160002060020154905060006110cf34611864565b905060006040518060400160405280601181526020017f4e6f7420656e6f75676820546f6b656e20000000000000000000000000000000815250905060008183604051602001611120929190612193565b6040516020818303038152906040529050843410158190611177576040517f08c379a000000000000000000000000000000000000000000000000000000000815260040161116e919061226d565b60405180910390fd5b506007600087815260200190815260200160002060030160009054906101000a900473ffffffffffffffffffffffffffffffffffffffff1673ffffffffffffffffffffffffffffffffffffffff166108fc349081150290604051600060405180830381858888f193505050501580156111f4573d6000803e3d6000fd5b508673ffffffffffffffffffffffffffffffffffffffff166323b872dd3033876040518463ffffffff1660e01b81526004016112329392919061228f565b600060405180830381600087803b15801561124c57600080fd5b505af1158015611260573d6000803e3d6000fd5b50505050336007600088815260200190815260200160002060040160006101000a81548173ffffffffffffffffffffffffffffffffffffffff021916908373ffffffffffffffffffffffffffffffffffffffff16021790555060016007600088815260200190815260200160002060060160006101000a81548160ff0219169083151502179055506112f26002611a89565b600460009054906101000a900473ffffffffffffffffffffffffffffffffffffffff1673ffffffffffffffffffffffffffffffffffffffff166108fc6006549081150290604051600060405180830381858888f1935050505015801561135c573d6000803e3d6000fd5b50505050505060016000819055505050565b60086020528060005260406000206000915090508060000154908060010160009054906101000a900473ffffffffffffffffffffffffffffffffffffffff16908060020154908060030160009054906101000a900473ffffffffffffffffffffffffffffffffffffffff16908060040160009054906101000a900473ffffffffffffffffffffffffffffffffffffffff16908060050154908060060160009054906101000a900460ff16905087565b600560009054906101000a900473ffffffffffffffffffffffffffffffffffffffff1681565b60076020528060005260406000206000915090508060000154908060010160009054906101000a900473ffffffffffffffffffffffffffffffffffffffff16908060020154908060030160009054906101000a900473ffffffffffffffffffffffffffffffffffffffff16908060040160009054906101000a900473ffffffffffffffffffffffffffffffffffffffff16908060050154908060060160009054906101000a900460ff16905087565b606060006115006001611856565b905060008060005b838110156115a9573373ffffffffffffffffffffffffffffffffffffffff16600760006001846115389190611fce565b815260200190815260200160002060030160009054906101000a900473ffffffffffffffffffffffffffffffffffffffff1673ffffffffffffffffffffffffffffffffffffffff161415611596576001836115939190611fce565b92505b80806115a190612053565b915050611508565b5060008267ffffffffffffffff8111156115c6576115c5611f9f565b5b6040519080825280602002602001820160405280156115ff57816020015b6115ec611ac8565b8152602001906001900390816115e45790505b50905060005b8481101561184b573373ffffffffffffffffffffffffffffffffffffffff16600760006001846116359190611fce565b815260200190815260200160002060030160009054906101000a900473ffffffffffffffffffffffffffffffffffffffff1673ffffffffffffffffffffffffffffffffffffffff161415611838576000600760006001846116969190611fce565b81526020019081526020016000206000015490506000600760008381526020019081526020016000209050806040518060e0016040529081600082015481526020016001820160009054906101000a900473ffffffffffffffffffffffffffffffffffffffff1673ffffffffffffffffffffffffffffffffffffffff1673ffffffffffffffffffffffffffffffffffffffff168152602001600282015481526020016003820160009054906101000a900473ffffffffffffffffffffffffffffffffffffffff1673ffffffffffffffffffffffffffffffffffffffff1673ffffffffffffffffffffffffffffffffffffffff1681526020016004820160009054906101000a900473ffffffffffffffffffffffffffffffffffffffff1673ffffffffffffffffffffffffffffffffffffffff1673ffffffffffffffffffffffffffffffffffffffff168152602001600582015481526020016006820160009054906101000a900460ff16151515158152505084868151811061181b5761181a612024565b5b60200260200101819052506001856118339190611fce565b945050505b808061184390612053565b915050611605565b508094505050505090565b600081600001549050919050565b606060008214156118ac576040518060400160405280600181526020017f300000000000000000000000000000000000000000000000000000000000000081525090506119e8565b600082905060005b600082146118de5780806118c790612053565b915050600a826118d79190612364565b91506118b4565b60008167ffffffffffffffff8111156118fa576118f9611f9f565b5b6040519080825280601f01601f19166020018201604052801561192c5781602001600182028036833780820191505090505b50905060008290505b600086146119e05760018161194a9190611f6b565b90506000600a808861195c9190612364565b6119669190612395565b876119719190611f6b565b603061197d91906123fc565b905060008160f81b90508084848151811061199b5761199a612024565b5b60200101907effffffffffffffffffffffffffffffffffffffffffffffffffffffffffffff1916908160001a905350600a886119d79190612364565b97505050611935565b819450505050505b919050565b611a858282604051602401611a03929190612433565b6040516020818303038152906040527f9710a9d0000000000000000000000000000000000000000000000000000000007bffffffffffffffffffffffffffffffffffffffffffffffffffffffff19166020820180517bffffffffffffffffffffffffffffffffffffffffffffffffffffffff8381831617835250505050611a9f565b5050565b6001816000016000828254019250508190555050565b60008151905060006a636f6e736f6c652e6c6f679050602083016000808483855afa5050505050565b6040518060e0016040528060008152602001600073ffffffffffffffffffffffffffffffffffffffff16815260200160008152602001600073ffffffffffffffffffffffffffffffffffffffff168152602001600073ffffffffffffffffffffffffffffffffffffffff168152602001600081526020016000151581525090565b600081519050919050565b600082825260208201905092915050565b6000819050602082019050919050565b6000819050919050565b611b8881611b75565b82525050565b600073ffffffffffffffffffffffffffffffffffffffff82169050919050565b6000611bb982611b8e565b9050919050565b611bc981611bae565b82525050565b6000611bda82611b8e565b9050919050565b611bea81611bcf565b82525050565b60008115159050919050565b611c0581611bf0565b82525050565b60e082016000820151611c216000850182611b7f565b506020820151611c346020850182611bc0565b506040820151611c476040850182611b7f565b506060820151611c5a6060850182611be1565b506080820151611c6d6080850182611be1565b5060a0820151611c8060a0850182611b7f565b5060c0820151611c9360c0850182611bfc565b50505050565b6000611ca58383611c0b565b60e08301905092915050565b6000602082019050919050565b6000611cc982611b49565b611cd38185611b54565b9350611cde83611b65565b8060005b83811015611d0f578151611cf68882611c99565b9750611d0183611cb1565b925050600181019050611ce2565b5085935050505092915050565b60006020820190508181036000830152611d368184611cbe565b905092915050565b611d4781611b75565b82525050565b6000602082019050611d626000830184611d3e565b92915050565b600080fd5b611d7681611bae565b8114611d8157600080fd5b50565b600081359050611d9381611d6d565b92915050565b611da281611b75565b8114611dad57600080fd5b50565b600081359050611dbf81611d99565b92915050565b600080600060608486031215611dde57611ddd611d68565b5b6000611dec86828701611d84565b9350506020611dfd86828701611db0565b9250506040611e0e86828701611db0565b9150509250925092565b60008060408385031215611e2f57611e2e611d68565b5b6000611e3d85828601611d84565b9250506020611e4e85828601611db0565b9150509250929050565b600060208284031215611e6e57611e6d611d68565b5b6000611e7c84828501611db0565b91505092915050565b611e8e81611bae565b82525050565b611e9d81611bcf565b82525050565b611eac81611bf0565b82525050565b600060e082019050611ec7600083018a611d3e565b611ed46020830189611e85565b611ee16040830188611d3e565b611eee6060830187611e94565b611efb6080830186611e94565b611f0860a0830185611d3e565b611f1560c0830184611ea3565b98975050505050505050565b6000602082019050611f366000830184611e85565b92915050565b7f4e487b7100000000000000000000000000000000000000000000000000000000600052601160045260246000fd5b6000611f7682611b75565b9150611f8183611b75565b925082821015611f9457611f93611f3c565b5b828203905092915050565b7f4e487b7100000000000000000000000000000000000000000000000000000000600052604160045260246000fd5b6000611fd982611b75565b9150611fe483611b75565b9250827fffffffffffffffffffffffffffffffffffffffffffffffffffffffffffffffff0382111561201957612018611f3c565b5b828201905092915050565b7f4e487b7100000000000000000000000000000000000000000000000000000000600052603260045260246000fd5b600061205e82611b75565b91507fffffffffffffffffffffffffffffffffffffffffffffffffffffffffffffffff82141561209157612090611f3c565b5b600182019050919050565b600082825260208201905092915050565b7f5265656e7472616e637947756172643a207265656e7472616e742063616c6c00600082015250565b60006120e3601f8361209c565b91506120ee826120ad565b602082019050919050565b60006020820190508181036000830152612112816120d6565b9050919050565b600081519050919050565b600081905092915050565b60005b8381101561214d578082015181840152602081019050612132565b8381111561215c576000848401525b50505050565b600061216d82612119565b6121778185612124565b935061218781856020860161212f565b80840191505092915050565b600061219f8285612162565b91506121ab8284612162565b91508190509392505050565b7f5072696365204d7573742062652067726561746572207468616e203000000000600082015250565b60006121ed601c8361209c565b91506121f8826121b7565b602082019050919050565b6000602082019050818103600083015261221c816121e0565b9050919050565b6000601f19601f8301169050919050565b600061223f82612119565b612249818561209c565b935061225981856020860161212f565b61226281612223565b840191505092915050565b600060208201905081810360008301526122878184612234565b905092915050565b60006060820190506122a46000830186611e85565b6122b16020830185611e85565b6122be6040830184611d3e565b949350505050565b600060e0820190506122db600083018a611d3e565b6122e86020830189611e85565b6122f56040830188611d3e565b6123026060830187611e85565b61230f6080830186611e85565b61231c60a0830185611d3e565b61232960c0830184611ea3565b98975050505050505050565b7f4e487b7100000000000000000000000000000000000000000000000000000000600052601260045260246000fd5b600061236f82611b75565b915061237a83611b75565b92508261238a57612389612335565b5b828204905092915050565b60006123a082611b75565b91506123ab83611b75565b9250817fffffffffffffffffffffffffffffffffffffffffffffffffffffffffffffffff04831182151516156123e4576123e3611f3c565b5b828202905092915050565b600060ff82169050919050565b6000612407826123ef565b9150612412836123ef565b92508260ff0382111561242857612427611f3c565b5b828201905092915050565b6000604082019050818103600083015261244d8185612234565b905061245c6020830184611d3e565b939250505056fe5072696365204d75737420626520657175616c20746f206c697374696e6720707269636520a2646970667358221220c55b454d1e5ecbf499fc7d17e41a15be21c7010e50f0ed872dcf1f4a4db3132a64736f6c63430008090033",
  "devdoc": {
    "kind": "dev",
    "methods": {},
    "version": 1
  },
  "userdoc": {
    "kind": "user",
    "methods": {},
    "version": 1
  },
  "storageLayout": {
    "storage": [
      {
        "astId": 10,
        "contract": "contracts/EcommerceMarket.sol:EcommerceMarket",
        "label": "_status",
        "offset": 0,
        "slot": "0",
        "type": "t_uint256"
      },
      {
        "astId": 1862,
        "contract": "contracts/EcommerceMarket.sol:EcommerceMarket",
        "label": "_itemIds",
        "offset": 0,
        "slot": "1",
        "type": "t_struct(Counter)1515_storage"
      },
      {
        "astId": 1865,
        "contract": "contracts/EcommerceMarket.sol:EcommerceMarket",
        "label": "_itemsSold",
        "offset": 0,
        "slot": "2",
        "type": "t_struct(Counter)1515_storage"
      },
      {
        "astId": 1867,
        "contract": "contracts/EcommerceMarket.sol:EcommerceMarket",
        "label": "unsoldItemCount",
        "offset": 0,
        "slot": "3",
        "type": "t_uint256"
      },
      {
        "astId": 1869,
        "contract": "contracts/EcommerceMarket.sol:EcommerceMarket",
        "label": "owner",
        "offset": 0,
        "slot": "4",
        "type": "t_address_payable"
      },
      {
        "astId": 1871,
        "contract": "contracts/EcommerceMarket.sol:EcommerceMarket",
        "label": "ItemCaller",
        "offset": 0,
        "slot": "5",
        "type": "t_address"
      },
      {
        "astId": 1874,
        "contract": "contracts/EcommerceMarket.sol:EcommerceMarket",
        "label": "listingPrice",
        "offset": 0,
        "slot": "6",
        "type": "t_uint256"
      },
      {
        "astId": 1906,
        "contract": "contracts/EcommerceMarket.sol:EcommerceMarket",
        "label": "idToMarketItem",
        "offset": 0,
        "slot": "7",
        "type": "t_mapping(t_uint256,t_struct(MarketItem)1901_storage)"
      },
      {
        "astId": 1911,
        "contract": "contracts/EcommerceMarket.sol:EcommerceMarket",
        "label": "idToUnsoldMarketItem",
        "offset": 0,
        "slot": "8",
        "type": "t_mapping(t_uint256,t_struct(MarketItem)1901_storage)"
      }
    ],
    "types": {
      "t_address": {
        "encoding": "inplace",
        "label": "address",
        "numberOfBytes": "20"
      },
      "t_address_payable": {
        "encoding": "inplace",
        "label": "address payable",
        "numberOfBytes": "20"
      },
      "t_bool": {
        "encoding": "inplace",
        "label": "bool",
        "numberOfBytes": "1"
      },
      "t_mapping(t_uint256,t_struct(MarketItem)1901_storage)": {
        "encoding": "mapping",
        "key": "t_uint256",
        "label": "mapping(uint256 => struct EcommerceMarket.MarketItem)",
        "numberOfBytes": "32",
        "value": "t_struct(MarketItem)1901_storage"
      },
      "t_struct(Counter)1515_storage": {
        "encoding": "inplace",
        "label": "struct Counters.Counter",
        "members": [
          {
            "astId": 1514,
            "contract": "contracts/EcommerceMarket.sol:EcommerceMarket",
            "label": "_value",
            "offset": 0,
            "slot": "0",
            "type": "t_uint256"
          }
        ],
        "numberOfBytes": "32"
      },
      "t_struct(MarketItem)1901_storage": {
        "encoding": "inplace",
        "label": "struct EcommerceMarket.MarketItem",
        "members": [
          {
            "astId": 1888,
            "contract": "contracts/EcommerceMarket.sol:EcommerceMarket",
            "label": "itemId",
            "offset": 0,
            "slot": "0",
            "type": "t_uint256"
          },
          {
            "astId": 1890,
            "contract": "contracts/EcommerceMarket.sol:EcommerceMarket",
            "label": "nftContract",
            "offset": 0,
            "slot": "1",
            "type": "t_address"
          },
          {
            "astId": 1892,
            "contract": "contracts/EcommerceMarket.sol:EcommerceMarket",
            "label": "tokenId",
            "offset": 0,
            "slot": "2",
            "type": "t_uint256"
          },
          {
            "astId": 1894,
            "contract": "contracts/EcommerceMarket.sol:EcommerceMarket",
            "label": "seller",
            "offset": 0,
            "slot": "3",
            "type": "t_address_payable"
          },
          {
            "astId": 1896,
            "contract": "contracts/EcommerceMarket.sol:EcommerceMarket",
            "label": "owner",
            "offset": 0,
            "slot": "4",
            "type": "t_address_payable"
          },
          {
            "astId": 1898,
            "contract": "contracts/EcommerceMarket.sol:EcommerceMarket",
            "label": "price",
            "offset": 0,
            "slot": "5",
            "type": "t_uint256"
          },
          {
            "astId": 1900,
            "contract": "contracts/EcommerceMarket.sol:EcommerceMarket",
            "label": "sold",
            "offset": 0,
            "slot": "6",
            "type": "t_bool"
          }
        ],
        "numberOfBytes": "224"
      },
      "t_uint256": {
        "encoding": "inplace",
        "label": "uint256",
        "numberOfBytes": "32"
      }
    }
  }
}