{
  "address": "0x7D691Bb4ef792B34e5b81F86C32C728996EdccB5",
  "abi": [
    {
      "inputs": [
        {
          "internalType": "address",
          "name": "_priceFeed",
          "type": "address"
        }
      ],
      "stateMutability": "nonpayable",
      "type": "constructor"
    },
    {
      "inputs": [],
      "name": "MIN_USD",
      "outputs": [
        {
          "internalType": "uint256",
          "name": "",
          "type": "uint256"
        }
      ],
      "stateMutability": "view",
      "type": "function"
    },
    {
      "inputs": [
        {
          "internalType": "uint256",
          "name": "eth",
          "type": "uint256"
        }
      ],
      "name": "ethToDollar",
      "outputs": [
        {
          "internalType": "uint256",
          "name": "",
          "type": "uint256"
        }
      ],
      "stateMutability": "view",
      "type": "function"
    },
    {
      "inputs": [],
      "name": "fund",
      "outputs": [],
      "stateMutability": "payable",
      "type": "function"
    },
    {
      "inputs": [],
      "name": "funderArraySize",
      "outputs": [
        {
          "internalType": "uint256",
          "name": "",
          "type": "uint256"
        }
      ],
      "stateMutability": "view",
      "type": "function"
    },
    {
      "inputs": [
        {
          "internalType": "address",
          "name": "",
          "type": "address"
        }
      ],
      "name": "funderToAmount",
      "outputs": [
        {
          "internalType": "uint256",
          "name": "",
          "type": "uint256"
        }
      ],
      "stateMutability": "view",
      "type": "function"
    },
    {
      "inputs": [
        {
          "internalType": "uint256",
          "name": "",
          "type": "uint256"
        }
      ],
      "name": "funders",
      "outputs": [
        {
          "internalType": "address",
          "name": "",
          "type": "address"
        }
      ],
      "stateMutability": "view",
      "type": "function"
    },
    {
      "inputs": [
        {
          "internalType": "uint256",
          "name": "index",
          "type": "uint256"
        }
      ],
      "name": "getFunderAddress",
      "outputs": [
        {
          "internalType": "address",
          "name": "",
          "type": "address"
        }
      ],
      "stateMutability": "view",
      "type": "function"
    },
    {
      "inputs": [
        {
          "internalType": "address",
          "name": "funder",
          "type": "address"
        }
      ],
      "name": "getFunderToAmount",
      "outputs": [
        {
          "internalType": "uint256",
          "name": "",
          "type": "uint256"
        }
      ],
      "stateMutability": "view",
      "type": "function"
    },
    {
      "inputs": [],
      "name": "priceFeed",
      "outputs": [
        {
          "internalType": "contract AggregatorV3Interface",
          "name": "",
          "type": "address"
        }
      ],
      "stateMutability": "view",
      "type": "function"
    }
  ],
  "transactionHash": "0xdb1827f2b18a5407b87766e498c965adb3421991498db63de00910015e9bd950",
  "args": [
    "0x8A753747A1Fa494EC906cE90E9f37563A8AF630e"
  ],
  "numDeployments": 6,
  "solcInputHash": "423abc9d998f658d4453f23af38dcb07",
  "bytecode": "0x60806040526802b5e3af16b188000060005534801561001d57600080fd5b50604051610ee7380380610ee7833981810160405281019061003f91906100e9565b80600360006101000a81548173ffffffffffffffffffffffffffffffffffffffff021916908373ffffffffffffffffffffffffffffffffffffffff16021790555050610116565b600080fd5b600073ffffffffffffffffffffffffffffffffffffffff82169050919050565b60006100b68261008b565b9050919050565b6100c6816100ab565b81146100d157600080fd5b50565b6000815190506100e3816100bd565b92915050565b6000602082840312156100ff576100fe610086565b5b600061010d848285016100d4565b91505092915050565b610dc2806101256000396000f3fe6080604052600436106100865760003560e01c8063501522cd11610059578063501522cd1461016d578063741bef1a146101985780639c5e5e0e146101c3578063b60d428814610200578063dc0d3dff1461020a57610086565b80631c2ffdfb1461008b578063213dbea2146100c85780633b6c8999146100f35780634407e1e814610130575b600080fd5b34801561009757600080fd5b506100b260048036038101906100ad919061076a565b610247565b6040516100bf91906107a6565b60405180910390f35b3480156100d457600080fd5b506100dd610333565b6040516100ea91906107a6565b60405180910390f35b3480156100ff57600080fd5b5061011a6004803603810190610115919061076a565b610339565b6040516101279190610802565b60405180910390f35b34801561013c57600080fd5b5061015760048036038101906101529190610849565b610381565b60405161016491906107a6565b60405180910390f35b34801561017957600080fd5b50610182610399565b60405161018f91906107a6565b60405180910390f35b3480156101a457600080fd5b506101ad6103a6565b6040516101ba91906108d5565b60405180910390f35b3480156101cf57600080fd5b506101ea60048036038101906101e59190610849565b6103cc565b6040516101f791906107a6565b60405180910390f35b610208610415565b005b34801561021657600080fd5b50610231600480360381019061022c919061076a565b61058f565b60405161023e9190610802565b60405180910390f35b600080600360009054906101000a900473ffffffffffffffffffffffffffffffffffffffff1673ffffffffffffffffffffffffffffffffffffffff1663feaf968c6040518163ffffffff1660e01b815260040160a06040518083038186803b1580156102b257600080fd5b505afa1580156102c6573d6000803e3d6000fd5b505050506040513d601f19601f820116820180604052508101906102ea919061097d565b50505091505060006402540be400826103039190610a27565b90506000670de0b6b3a7640000858361031c9190610b3e565b6103269190610bc7565b9050809350505050919050565b60005481565b60006001828154811061034f5761034e610bf8565b5b9060005260206000200160009054906101000a900473ffffffffffffffffffffffffffffffffffffffff169050919050565b60026020528060005260406000206000915090505481565b6000600180549050905090565b600360009054906101000a900473ffffffffffffffffffffffffffffffffffffffff1681565b6000600260008373ffffffffffffffffffffffffffffffffffffffff1673ffffffffffffffffffffffffffffffffffffffff168152602001908152602001600020549050919050565b600061042034610247565b9050600054811015610467576040517f08c379a000000000000000000000000000000000000000000000000000000000815260040161045e90610c84565b60405180910390fd5b6104a66040518060400160405280600581526020017f6164643a20000000000000000000000000000000000000000000000000000000815250336105ce565b6104e56040518060400160405280600781526020017f76616c75653a20000000000000000000000000000000000000000000000000008152503461066a565b6001339080600181540180825580915050600190039060005260206000200160009091909190916101000a81548173ffffffffffffffffffffffffffffffffffffffff021916908373ffffffffffffffffffffffffffffffffffffffff16021790555080600260003373ffffffffffffffffffffffffffffffffffffffff1673ffffffffffffffffffffffffffffffffffffffff1681526020019081526020016000208190555050565b6001818154811061059f57600080fd5b906000526020600020016000915054906101000a900473ffffffffffffffffffffffffffffffffffffffff1681565b61066682826040516024016105e4929190610d2c565b6040516020818303038152906040527f319af333000000000000000000000000000000000000000000000000000000007bffffffffffffffffffffffffffffffffffffffffffffffffffffffff19166020820180517bffffffffffffffffffffffffffffffffffffffffffffffffffffffff8381831617835250505050610706565b5050565b6107028282604051602401610680929190610d5c565b6040516020818303038152906040527f9710a9d0000000000000000000000000000000000000000000000000000000007bffffffffffffffffffffffffffffffffffffffffffffffffffffffff19166020820180517bffffffffffffffffffffffffffffffffffffffffffffffffffffffff8381831617835250505050610706565b5050565b60008151905060006a636f6e736f6c652e6c6f679050602083016000808483855afa5050505050565b600080fd5b6000819050919050565b61074781610734565b811461075257600080fd5b50565b6000813590506107648161073e565b92915050565b6000602082840312156107805761077f61072f565b5b600061078e84828501610755565b91505092915050565b6107a081610734565b82525050565b60006020820190506107bb6000830184610797565b92915050565b600073ffffffffffffffffffffffffffffffffffffffff82169050919050565b60006107ec826107c1565b9050919050565b6107fc816107e1565b82525050565b600060208201905061081760008301846107f3565b92915050565b610826816107e1565b811461083157600080fd5b50565b6000813590506108438161081d565b92915050565b60006020828403121561085f5761085e61072f565b5b600061086d84828501610834565b91505092915050565b6000819050919050565b600061089b610896610891846107c1565b610876565b6107c1565b9050919050565b60006108ad82610880565b9050919050565b60006108bf826108a2565b9050919050565b6108cf816108b4565b82525050565b60006020820190506108ea60008301846108c6565b92915050565b600069ffffffffffffffffffff82169050919050565b61090f816108f0565b811461091a57600080fd5b50565b60008151905061092c81610906565b92915050565b6000819050919050565b61094581610932565b811461095057600080fd5b50565b6000815190506109628161093c565b92915050565b6000815190506109778161073e565b92915050565b600080600080600060a086880312156109995761099861072f565b5b60006109a78882890161091d565b95505060206109b888828901610953565b94505060406109c988828901610968565b93505060606109da88828901610968565b92505060806109eb8882890161091d565b9150509295509295909350565b7f4e487b7100000000000000000000000000000000000000000000000000000000600052601160045260246000fd5b6000610a3282610932565b9150610a3d83610932565b9250827f7fffffffffffffffffffffffffffffffffffffffffffffffffffffffffffffff0482116000841360008413161615610a7c57610a7b6109f8565b5b817f80000000000000000000000000000000000000000000000000000000000000000583126000841260008413161615610ab957610ab86109f8565b5b827f80000000000000000000000000000000000000000000000000000000000000000582126000841360008412161615610af657610af56109f8565b5b827f7fffffffffffffffffffffffffffffffffffffffffffffffffffffffffffffff0582126000841260008412161615610b3357610b326109f8565b5b828202905092915050565b6000610b4982610734565b9150610b5483610734565b9250817fffffffffffffffffffffffffffffffffffffffffffffffffffffffffffffffff0483118215151615610b8d57610b8c6109f8565b5b828202905092915050565b7f4e487b7100000000000000000000000000000000000000000000000000000000600052601260045260246000fd5b6000610bd282610734565b9150610bdd83610734565b925082610bed57610bec610b98565b5b828204905092915050565b7f4e487b7100000000000000000000000000000000000000000000000000000000600052603260045260246000fd5b600082825260208201905092915050565b7f4e6f7420656e6f75676820457468000000000000000000000000000000000000600082015250565b6000610c6e600e83610c27565b9150610c7982610c38565b602082019050919050565b60006020820190508181036000830152610c9d81610c61565b9050919050565b600081519050919050565b60005b83811015610ccd578082015181840152602081019050610cb2565b83811115610cdc576000848401525b50505050565b6000601f19601f8301169050919050565b6000610cfe82610ca4565b610d088185610c27565b9350610d18818560208601610caf565b610d2181610ce2565b840191505092915050565b60006040820190508181036000830152610d468185610cf3565b9050610d5560208301846107f3565b9392505050565b60006040820190508181036000830152610d768185610cf3565b9050610d856020830184610797565b939250505056fea2646970667358221220f47e6e8b7bdcd221f0f9262753b813c34f765b61d1148b83a61eaa506bef686264736f6c63430008090033",
  "devdoc": {
    "kind": "dev",
    "methods": {},
    "version": 1
  },
  "userdoc": {
    "kind": "user",
    "methods": {},
    "version": 1
  },
  "storageLayout": {
    "storage": [
      {
        "astId": 56,
        "contract": "contracts/FundMe.sol:FundMe",
        "label": "MIN_USD",
        "offset": 0,
        "slot": "0",
        "type": "t_uint256"
      },
      {
        "astId": 59,
        "contract": "contracts/FundMe.sol:FundMe",
        "label": "funders",
        "offset": 0,
        "slot": "1",
        "type": "t_array(t_address)dyn_storage"
      },
      {
        "astId": 63,
        "contract": "contracts/FundMe.sol:FundMe",
        "label": "funderToAmount",
        "offset": 0,
        "slot": "2",
        "type": "t_mapping(t_address,t_uint256)"
      },
      {
        "astId": 66,
        "contract": "contracts/FundMe.sol:FundMe",
        "label": "priceFeed",
        "offset": 0,
        "slot": "3",
        "type": "t_contract(AggregatorV3Interface)45"
      }
    ],
    "types": {
      "t_address": {
        "encoding": "inplace",
        "label": "address",
        "numberOfBytes": "20"
      },
      "t_array(t_address)dyn_storage": {
        "base": "t_address",
        "encoding": "dynamic_array",
        "label": "address[]",
        "numberOfBytes": "32"
      },
      "t_contract(AggregatorV3Interface)45": {
        "encoding": "inplace",
        "label": "contract AggregatorV3Interface",
        "numberOfBytes": "20"
      },
      "t_mapping(t_address,t_uint256)": {
        "encoding": "mapping",
        "key": "t_address",
        "label": "mapping(address => uint256)",
        "numberOfBytes": "32",
        "value": "t_uint256"
      },
      "t_uint256": {
        "encoding": "inplace",
        "label": "uint256",
        "numberOfBytes": "32"
      }
    }
  }
}